:100000000C9466000C94AC000C9483000C94830058
:100010000C9483000C9483000C9483000C94830054
:100020000C9483000C9483000C9483000C94830044
:100030000C9483000C9483000C9483000C94830034
:100040000C9483000C9483000C9483000C94830024
:100050000C9483000C9483000C9483000C94830014
:100060000C9483000C9483000C9483000C94830004
:100070000C9483000C9483000C9483000C948300F4
:100080000C9483000C9483000C9483000C948300E4
:100090000C9483000C9483000C9483000C948300D4
:1000A0000C9483000C9483000C9483000C948300C4
:1000B0000C9483000C9483000C9483000C948300B4
:1000C0000C9483000C9483000C94830011241FBEB5
:1000D000CFEFD8E0DEBFCDBF11E0A0E0B1E0EAE6AF
:1000E000F2E002C005900D92A431B107D9F721E0EA
:1000F000A4E1B1E001C01D92A531B207E1F70E9471
:1001000085000C9433010C94000083E30E942A01C3
:100110000E94090180E091E00E94E30078942FEFB3
:1001200084E39CE0215080409040E1F700C0000053
:10013000F6CFCF93C62F5E988F7180620E94100118
:100140005E9A85E88A95F1F700005E988C2F0E94F0
:1001500010015E9ACF9108951F920F920FB60F92E1
:1001600011242F933F934F935F936F937F938F93BC
:100170009F93AF93BF93EF93FF93809114018823D4
:1001800089F05E988FEF0E9418015E9A5C986BE48C
:1001900080E00E9499005C9A1092140160E387E06D
:1001A0000E949900FF91EF91BF91AF919F918F9124
:1001B0007F916F915F914F913F912F910F900FBE63
:1001C0000F901F9018950F931F93CF93DF938C017F
:1001D000FC0180818A3069F08B3379F40AC08991FF
:1001E0008A3039F08B3329F00E9422010C171D0749
:1001F000B1F78AE00E94220107C00E942201E801B3
:10020000219608531F4FEBCFDF91CF911F910F9194
:1002100008956B9A579A569A86E58093AC00089594
:100220008093AE00EDEAF0E080818823ECF708953A
:100230008093AE00EDEAF0E080818823ECF78091B6
:10024000AE000895E0ECF0E0908195FFFDCF809343
:10025000C600089598E99093C10096E09093C2007B
:0A0260008093C4000895F894FFCFC6
:10026A0053797374656D20696E697469616C697A12
:04027A0065643B007C
:00000001FF
