S01C00006E524632344C30315F41746D65676133323450422E7372656316
S11300000C9493000C9449030C94B0000C94B0002D
S11300100C94B0000C94B0000C94B0000C94B0009C
S11300200C94B0000C94B0000C94B0000C94B0008C
S11300300C94B0000C94B0000C94B0000C94B0007C
S11300400C94B0000C94B0000C94B0000C94B0006C
S11300500C94B0000C94B0000C94B0000C94B0005C
S11300600C94B0000C94B0000C94B0000C94B0004C
S11300700C94B0000C94B0000C94B0000C94B0003C
S11300800C94B0000C94B0000C94B0000C94B0002C
S11300900C94B0000C94B0000C94B0000C94B0001C
S11300A00C94B0000C94B0000C94B0000C94B0000C
S11300B00C94B0000C94B0000C94B0000C94B000FC
S11300C00C94B0000C94B0000C94B0000800000034
S11300D0BE922449123EABAAAA2ABECDCCCC4C3E39
S11300E000000080BEABAAAAAA3E00000000BF0028
S11300F00000803F0000000000084178D3BB438724
S1130100D1133D190E3CC3BD4282AD2B3E68EC8237
S113011076BED98FE1A93E4C80EFFFBE01C4FF7FBC
S11301203F000000000011241FBECFEFD8E0DEBF67
S1130130CDBF11E0A0E0B1E0E4E9FEE002C005902B
S11301400D92A432B107D9F721E0A4E2B1E001C0D5
S11301501D92A333B207E1F70E9486010C9448076D
S11301600C940000ECE7F0E0808180648083EAE78F
S1130170F0E08081876880830895ECE7F0E0908167
S1130180987F8770892B8083EAE7F0E08081806420
S11301908083808184FFFDCF209178008091790055
S11301A090E0982F882788279F72822B0895DF92EA
S11301B0EF92FF920F931F93CF93DF93E62EF12CD0
S11301C01E141F04ACF4D82EC0E0D0E000E010E010
S11301D08D2D0E94BD00080F191F8FE99FE0019724
S11301E0F1F700C000002196CE15DF0589F702C0A3
S11301F000E010E0C801B7010E94EB06CB01DF91DB
S1130200CF911F910F91FF90EF90DF9008956C9A1A
S1130210219A229A559A239A0895E0E8F0E0808181
S113022081688083E1E8F0E08081896080830895BB
S113023084B5836884BD85B5846085BD8EE387BD40
S11302400895BC01990F880B990B0E946D052FE648
S113025032E143E85EE30E94490620E030E040E8F2
S11302605FE30E9456040E9435056F3F710519F043
S113027014F06FEF70E07727709389006093880023
S11302800895299A2A98089529982A9A0895299AC6
S11302902A9A08959B01AC0160E070EC8FE794E426
S11302A00E94C30420E030E040E85FE30E9456046B
S11302B09B01AC0160E070E48CE196E40E94C3040D
S11302C020E030E44CE156E40E94C3040E9401069D
S11302D020E030E844E555E40E94C3042FE03FECFD
S11302E04BE55BE30E9457049B01AC0160E070E0C6
S11302F080E89FE30E94C30423E333E948E853E41E
S11303000E9456040E943505CB0108950E940701FE
S113031080E00E944D040E94F1030E9499020E9411
S1130320B2000E940D010E9418012FE738E381E01A
S1130330215030408040E1F700C000009EB180E1D0
S113034098279EB99FEF20E732E09150204030403B
S1130350E1F700C000009EB198279EB99FEF20E707
S113036032E0915020403040E1F700C000009EB1DF
S113037098279EB99FEF20E732E09150204030400B
S1130380E1F700C000009EB198279EB99FEF20E7D7
S113039032E0915020403040E1F700C000009EB1AF
S11303A098279EB99FEF20E732E0915020403040DB
S11303B0E1F700C000009EB198279EB99FEF20E7A7
S11303C032E0915020403040E1F700C000009EB17F
S11303D098279EB99FEF20E732E0915020403040AB
S11303E0E1F700C000009EB189278EB98FEF99E62E
S11303F028E1815090402040E1F700C0000078944B
S11304000E94C90285E091E00E94390380E091E0F6
S11304100E9431038AE091E00E9477038FE19EE419
S11304200197F1F700C00000C0E18EB18C278EB9AE
S11304300E94A7028823E1F38FE291E00E94060361
S1130440EFE2F1E08081082E000C990B982F8827A9
S11304502181822BAC0190932E0180932D01228166
S113046020932C01181619062CF40E9421010E94D5
S113047041011AC055236CF49C01332324F4222730
S11304803327281B390BC9010E9421010E94440112
S11304900BC08D599F4F873C910530F481E090E06B
S11304A00E9421010E94470160912C01062E000C3C
S11304B0770B880B990B0E946D052FE832EC45EB06
S11304C05EE30E94490620E030E04CE352E40E94DF
S11304D057040E943C0567BD65E080E00E94D70098
S11304E0BC01990F880B990B0E946D05609328013C
S11304F07093290180932A0190932B010E944A0151
S11305008C01BC01990F880B990B0E946D056093B7
S11305102401709325018093260190932701C8013B
S11305200E949D038FE19EE40197F1F700C0000053
S11305307CCF549A569A5C985E9AE898E9E6F0E083
S1130540808182608083E89A0E94F10308958091FB
S11305503201811107C05E988FEF0E9400045E9AF9
S11305608074089580E00895CF93C62F5E988F71AC
S113057080620E94F80382E48A95F1F700C08C2F10
S11305800E94F8035E9A82E48A95F1F700C0CF9145
S113059008956CE685E00E94B40260E081E10E9467
S11305A0B40263E082E10E94B40260E083E10E944D
S11305B0B40260E084E10E94B40260E085E10E943C
S11305C0B40260E086E10E94B40266E286E00E9422
S11305D0B40263E081E00E94B40263E082E00E941E
S11305E0B4026FE484E00E94B4021092320160E726
S11305F087E00E94B4025E9881EE0E94F8035E9A3E
S11306006BE580E00E94B4025C9A0895CF93DF9377
S1130610EC015E9881E60E94F80343E0BE01CE013E
S11306200E9421045E9A60E487E00E94B402DF9194
S1130630CF9108951F93CF93DF93EB01142F5E980E
S11306408F7180620E94F803612FCE010E940A0418
S11306505E9A82E48A95F1F700C0DF91CF911F91F1
S113066008955C9845E0BC018BE00E941A035C9AF3
S11306700895CF93DF93EC0145E0BC018AE00E942A
S11306801A0345E0BE0180E10E941A03DF91CF9175
S113069008951F920F920FB60F9211242F933F9338
S11306A04F935F936F937F938F939F93AF93BF9376
S11306B0EF93FF9380913201882341F05C986BE5BE
S11306C080E00E94B4025C9A10923201FF91EF9193
S11306D0BF91AF919F918F917F916F915F914F9156
S11306E03F912F910F900FBE0F901F9018950F936D
S11306F01F93CF93DF938C01FC0180818A3069F0D2
S11307008B3379F40AC089918A3039F08B3329F01C
S11307100E9445040C171D07B1F78AE00E944504A6
S113072007C00E944504E801219608531F4FEBCFF0
S1130730DF91CF911F910F910895EF92FF920F9344
S11307401F93CF93DF93CDB7DEB7E2970FB6F8943C
S1130750DEBF0FBECDBF8C01009731F480E30E9451
S11307604504E12CF12C16C020E030E0EAE0F0E092
S113077001C09701BF010E94EB06CB0179014FEF45
S1130780E41AF40A0097A9F7112324F4790182E00A
S1130790E80EF11C4AE0BE016F5F7F4FC8010E9462
S11307A013071E141F046CF48E010F5F1F4FE00E1D
S11307B0F11EF80181918F010E9445040E151F0559
S11307C0C1F78AE00E944504E2960FB6F894DEBFB2
S11307D00FBECDBFDF91CF911F910F91FF90EF908E
S11307E008956B9A579A569A82E58093AC000895BF
S11307F08093AE00EDEAF0E080818823ECF7089561
S11308008093AE00EDEAF0E080818823ECF78091DC
S1130810AE000895CF93DF93662381F0DC019C0141
S1130820260F311DCEEAD0E0EDEAF0E09D919883E9
S113083090819923ECF7A217B307C1F7DF91CF9109
S113084008950F931F93CF93DF934423C9F0DC01E2
S1130850062F172F9C01240F311DA9012EEA30E029
S1130860EDEAF0E09D91E901988390819923ECF7FA
S1130870E9019881E80199938E01A417B50791F7CE
S1130880DF91CF911F910F910895E0ECF0E09081FA
S113089095FFFDCF8093C600089598E99093C10019
S11308A096E09093C2008093C40008955058BB27EB
S11308B0AA270E946E040C94BF050E94B10538F06B
S11308C00E94B80520F039F49F3F19F426F40C94E3
S11308D0AE050EF4E095E7FB0C94A805E92F0E9401
S11308E0D00558F3BA17620773078407950720F0F9
S11308F079F4A6F50C94F2050EF4E0950B2EBA2FBC
S1130900A02D0B01B90190010C01CA01A001112411
S1130910FF27591B99F0593F50F4503E68F11A16BD
S1130920F040A22F232F342F4427585FF3CF46954E
S113093037952795A795F0405395C9F77EF41F1670
S1130940BA0B620B730B840BBAF09150A1F0FF0F3A
S1130950BB1F661F771F881FC2F70EC0BA0F621F26
S1130960731F841F48F4879577956795B795F79516
S11309709E3F08F0B0CF9395880F08F09927EE0FAB
S11309809795879508950E94D7040C94BF050E94FB
S1130990B80558F00E94B10540F029F45F3F29F0F2
S11309A00C94A80551110C94F3050C94AE050E9407
S11309B0D00568F39923B1F3552391F3951B550B97
S11309C0BB27AA2762177307840738F09F5F5F4F1E
S11309D0220F331F441FAA1FA9F335D00E2E3AF05D
S11309E0E0E832D091505040E695001CCAF72BD075
S11309F0FE2F29D0660F771F881FBB1F26173707C6
S1130A004807AB07B0E809F0BB0B802DBF01FF27F7
S1130A1093585F4F3AF09E3F510578F00C94A80527
S1130A200C94F3055F3FE4F3983ED4F386957795F1
S1130A306795B795F7959F5FC9F7880F911D9695B0
S1130A40879597F90895E1E0660F771F881FBB1F0C
S1130A50621773078407BA0720F0621B730B840BB9
S1130A60BA0BEE1F88F7E09508950E943C05689440
S1130A70B1110C94F30508950E94D80588F09F578E
S1130A8098F0B92F9927B751B0F0E1F0660F771FAE
S1130A90881F991F1AF0BA95C9F714C0B13091F0A4
S1130AA00E94F205B1E008950C94F205672F782FA7
S1130AB08827B85F39F0B93FCCF386957795679569
S1130AC0B395D9F73EF490958095709561957F4FD5
S1130AD08F4F9F4F0895E89409C097FB3EF490957B
S1130AE08095709561957F4F8F4F9F4F9923A9F003
S1130AF0F92F96E9BB279395F69587957795679592
S1130B00B795F111F8CFFAF4BB0F11F460FF1BC0D5
S1130B106F5F7F4F8F4F9F4F16C0882311F096E968
S1130B2011C0772321F09EE8872F762F05C0662316
S1130B3071F096E8862F70E060E02AF09A95660FCF
S1130B40771F881FDAF7880F9695879597F9089588
S1130B5097F99F6780E870E060E008959FEF80EC6C
S1130B60089500240A94161617061806090608950F
S1130B7000240A9412161306140605060895092E75
S1130B800394000C11F4882352F0BB0F40F4BF2BE4
S1130B9011F460FF04C06F5F7F4F8F4F9F4F089524
S1130BA057FD9058440F551F59F05F3F71F047951A
S1130BB0880F97FB991F61F09F3F79F087950895FF
S1130BC0121613061406551FF2CF4695F1DF08C01E
S1130BD0161617061806991FF1CF8695710561053B
S1130BE008940895E894BB2766277727CB0197F9E3
S1130BF0089516F00C94B6060C94AE0568940C9403
S1130C00A8050E94D805A8F39923C1F3AEF3DF9396
S1130C10CF931F930F93FF92C92FDD2788232AF0C8
S1130C202197660F771F881FDAF720E030E040E84D
S1130C305FEB9FE3883920F0803E38F021968F7770
S1130C400E945704ECECF0E004C00E945704E9EF62
S1130C50F0E00E94C4068B01BE01EC01FB2E6F572D
S1130C6071097595771F880B990B0E946D0528E112
S1130C7032E741E35FE30E945C06AF2D9801AE01C9
S1130C80FF900F911F91CF91DF910E946E040C94FD
S1130C90BF050E945C060C94BF050E94B10538F0A4
S1130CA00E94B80520F0952311F00C94A8050C942B
S1130CB0AE0511240C94F3050E94D00570F3959FA2
S1130CC0C1F3950F50E0551F629FF001729FBB273F
S1130CD0F00DB11D639FAA27F00DB11DAA1F649FDB
S1130CE06627B00DA11D661F829F2227B00DA11D8E
S1130CF0621F739FB00DA11D621F839FA00D611D14
S1130D00221F749F3327A00D611D231F849F600D34
S1130D10211D822F762F6A2F11249F5750409AF05D
S1130D20F1F088234AF0EE0FFF1FBB1F661F771FE9
S1130D30881F91505040A9F79E3F510580F00C94B4
S1130D40A8050C94F3055F3FE4F3983ED4F386952D
S1130D5077956795B795F795E7959F5FC1F7FE2B54
S1130D60880F911D9695879597F908959F3F31F0C7
S1130D70915020F4879577956795B795880F911DC5
S1130D809695879597F90895DF93CF931F930F93C3
S1130D90FF92EF92DF927B018C01689406C0DA2EF9
S1130DA0EF010E945C06FE01E894A591259135911E
S1130DB045915591A6F3EF010E946E04FE0197013F
S1130DC0A801DA9469F7DF90EF90FF900F911F91DB
S1130DD0CF91DF91089597FB072E16F4009407D066
S1130DE077FD09D00E94FF0607FC05D03EF49095DC
S1130DF081959F4F0895709561957F4F0895AA1B23
S1130E00BB1B51E107C0AA1FBB1FA617B70710F0F1
S1130E10A61BB70B881F991F5A95A9F78095909523
S1130E20BC01CD010895BB274A3031F4992322F443
S1130E30BDE2909581959F4F0C941F07BB27FB0142
S1130E405527AA27880F991FAA1FA41710F0A41BBF
S1130E5083955051B9F7A05DAA3308F0A95DA19319
S1130E60009779F7B111B1931192CB010C94380723
S1130E70DC01FC01672F71917723E1F7329704C0FD
S1130E807C916D9370836291AE17BF07C8F3089588
S1070E90F894FFCF00
S1130E94E7E7E7E7E7D7D7D7D7D76E524632344CDC
S1130EA4303120696E697469616C697A65642E2EC7
S1070EB42E3B0000CD
S9030000FC
