:100000000C9466000C9401020C9483000C94830001
:100010000C9483000C9483000C9483000C94830054
:100020000C9483000C9483000C9483000C94830044
:100030000C9483000C9483000C9483000C94830034
:100040000C9483000C9483000C9483000C94830024
:100050000C9483000C9483000C9483000C94830014
:100060000C9483000C9483000C9483000C94830004
:100070000C9483000C9483000C9483000C948300F4
:100080000C9483000C9483000C9483000C948300E4
:100090000C9483000C9483000C9483000C948300D4
:1000A0000C9483000C9483000C9483000C948300C4
:1000B0000C9483000C9483000C9483000C948300B4
:1000C0000C9483000C9483000C94830011241FBEB5
:1000D000CFEFD8E0DEBFCDBF11E0A0E0B1E0E6ECAD
:1000E000F5E002C005900D92A239B107D9F721E0E1
:1000F000A2E9B1E001C01D92A339B207E1F70E9465
:1001000087000C94E1020C940000209A08950E944C
:10011000850080E00E94D8020E947C020E94660155
:100120002FE738E381E0215030408040E1F700C004
:10013000000095B181E0982795B99FEFE0E7F2E0E4
:100140009150E040F040E1F700C0000095B19827E1
:1001500095B92FEF30E792E0215030409040E1F721
:1001600000C0000095B1982795B9EFEFF0E722E0C5
:10017000E150F0402040E1F700C0000095B1982721
:1001800095B93FEF90E7E2E031509040E040E1F771
:1001900000C0000095B1982795B9FFEF20E732E045
:1001A000F15020403040E1F700C0000095B19827A1
:1001B00095B99FEFE0E7F2E09150E040F040E1F7C1
:1001C00000C0000095B1982795B92FEF30E792E075
:1001D000215030409040E1F700C0000095B18927E0
:1001E00085B9EFEFF9E628E1E150F0402040E1F772
:1001F00000C0000078940E94A50180E191E00E9477
:1002000056028FE19EE40197F1F700C00000C1E0C3
:1002100089E291E00E945602EFECF7E03197F1F7A6
:1002200000C0000060E180E091E00E94C901FAE1B5
:10023000FA95F1F700C00E9481018823E1F360E3A1
:1002400087E00E9490018AE391E00E9456022AE131
:100250002A95F1F700C083E591E00E9456020CC098
:1002600085B18C2785B93FEF80E792E0315080401F
:100270009040E1F700C000000E947401882381F3E0
:10028000289A80E091E00E94B50188E691E00E9402
:10029000330200E011E0F80180810E9430028CE21C
:1002A0000E94300280E20E943002F80181810E94A7
:1002B00030028AE00E943002FFEF20E732E0F15086
:1002C00020403040E1F700C00000A2CF549A569A77
:1002D0005C985E9AE898E9E6F0E08081826080832D
:1002E000E89A0E947C02089580919201811107C0D2
:1002F0005E988FEF0E948B025E9A8074089580E072
:100300000895CF935E988FEF0E948B02C82F5E9A5C
:1003100089E791E00E9456028C2F8072CF91089558
:10032000CF93C62F5E988F7180620E94830282E411
:100330008A95F1F700C08C2F0E9483025E9A82E4B6
:100340008A95F1F700C0CF91089562E085E00E94A0
:10035000900160E181E10E949001109292016BE4B2
:1003600080E00E9490015C9A0895CF93DF93EC01A6
:100370005E9881E60E94830240E1BE01CE010E94A8
:10038000AC025E9A60E487E00E949001DF91CF9119
:1003900008951F93CF93DF93EC01162F8091920164
:1003A000882341F086E891E00E94560280919201F4
:1003B0008111F8CF5C9881E0809392016AE480E03B
:1003C0000E9490015E9881EE0E9483025E9A82E410
:1003D0008A95F1F700C05E9880EA0E94830282E469
:1003E0008A95F1F700C0612FCE010E94950282E448
:1003F0008A95F1F700C05E9A5C9ADF91CF911F91C8
:1004000008951F920F920FB60F9211242F933F93CE
:100410004F935F936F937F938F939F93AF93BF930C
:10042000EF93FF935E988FEF0E948B025E9A5C9829
:100430006BE480E00E9490015C9A10929201FF911F
:10044000EF91BF91AF919F918F917F916F915F914C
:100450004F913F912F910F900FBE0F901F901895C5
:100460000E94D00208950F931F93CF93DF93FC0156
:1004700080818A30B1F08B3361F413C089918A3066
:1004800081F08B3371F00E94D0020C171D07B1F779
:1004900008C08F010E94D002E801219608531F4F27
:1004A000EDCFDF91CF911F910F9108950F931F937F
:1004B000CF93DF938C01FC0180818A3069F08B330C
:1004C00079F40AC089918A3039F08B3329F00E947F
:1004D000D0020C171D07B1F78AE00E94D00207C0B6
:1004E0000E94D002E801219608531F4FEBCFDF9105
:1004F000CF911F910F9108956B9A579A569A82E562
:100500008093AC0008958093AE00EDEAF0E0808126
:100510008823ECF708958093AE00EDEAF0E0808147
:100520008823ECF78091AE000895CF93DF93662384
:1005300081F0DC019C01260F311DCEEAD0E0EDEA0E
:10054000F0E09D91988390819923ECF7A217B3076F
:10055000C1F7DF91CF9108950F931F93CF93DF934E
:100560004423C9F0DC01062F172F9C01240F311DF5
:10057000A9012EEA30E0EDEAF0E09D91E9019883CF
:1005800090819923ECF7E9019881E80199938E0114
:10059000A417B50791F7DF91CF911F910F9108959F
:1005A000E0ECF0E0908195FFFDCF8093C6000895C8
:1005B00098E99093C10096E09093C2008093C400A4
:0605C0000895F894FFCF3E
:1005C600030400000000000000000000000000001E
:1005D6006E524632344C303120696E697469616CF2
:1005E600697A65642E2E2E3B0053656E64696E67CC
:1005F60020646174612E2E2E3B0044617461207369
:10060600656E74207375636365737366756C6C7958
:100616002E3B0057616974696E6720666F722065AC
:1006260063686F2E2E2E3B004563686F20726563EC
:1006360065697665643A203B00636865636B696E3D
:10064600672054583B007768696C652850545829D0
:020656000000A2
:00000001FF
