:100000000C9466000C945E010C9483000C948300A5
:100010000C9483000C9483000C9483000C94830054
:100020000C9483000C9483000C9483000C94830044
:100030000C9483000C9483000C9483000C94830034
:100040000C9483000C9483000C9483000C94830024
:100050000C9483000C9483000C9483000C94830014
:100060000C9483000C9483000C9483000C94830004
:100070000C9483000C9483000C9483000C948300F4
:100080000C9483000C9483000C9483000C948300E4
:100090000C9483000C9483000C9483000C948300D4
:1000A0000C9483000C9483000C9483000C948300C4
:1000B0000C9483000C9483000C9483000C948300B4
:1000C0000C9483000C9483000C94830011241FBEB5
:1000D000CFEFD8E0DEBFCDBF11E0A0E0B1E0E0E9B6
:1000E000F4E002C005900D92A835B107D9F721E0E0
:1000F000A8E5B1E001C01D92AD38B207E1F70E945A
:1001000088000C9446020C94000084B184B90895D0
:100110000E94850083E30E943D020E94E1010E944B
:10012000E5002FE738E381E0215030408040E1F7DF
:1001300000C0000078940E94130180E091E00E94CA
:10014000BB018FEC97E00197F1F700C0000089E157
:1001500091E00E94BB018FEC97E00197F1F700C09E
:10016000000062E08AE891E00E94370182E391E0BA
:100170000E94BB010E94F3008823E1F38AE891E02A
:100180000E94230187E491E00E949801CAE8D1E02F
:1001900088810E9495018CE20E94950180E20E9474
:1001A000950189810E9495018AE00E94950191E064
:1001B00085B1892785B92FEF34E38CE02150304099
:1001C0008040E1F700C00000F3CF549A569A5C9843
:1001D0005E9AE898E9E6F0E0808182608083E89AA0
:1001E0000E94E101089580918C01811107C05E9801
:1001F0008FEF0E94F0015E9A8074089580E0089568
:10020000CF93C62F5E988F7180620E94E8015E9A3C
:1002100085E88A95F1F700005E988C2F0E94E8012E
:100220005E9ACF91089562E085E00E94000160E14E
:1002300081E10E94000110928C016BE480E00E9439
:1002400000015C9A0895CF93DF93EC015E9881E6FC
:100250000E94F00140E1BE01CE010E9411025E9AAF
:1002600060E487E00E940001DF91CF9108951F9321
:10027000CF93DF93EC01162F80918C018111FCCF7D
:100280005C9881E080938C018AE00E9495016AE489
:1002900080E00E9400015E9881EE0E94E8015E9A73
:1002A0005E9880EA0E94E801612FCE010E94FA0167
:1002B0005E9A5C9ADF91CF911F9108951F920F92E1
:1002C0000FB60F9211242F933F934F935F936F9329
:1002D0007F938F939F93AF93BF93EF93FF938091FF
:1002E0008C01882389F05E988FEF0E94F0015E9A5E
:1002F0005C986BE480E00E9400015C9A10928C0193
:1003000060E387E00E940001FF91EF91BF91AF9100
:100310009F918F917F916F915F914F913F912F911D
:100320000F900FBE0F901F9018950E9435020895F0
:100330000F931F93CF93DF93FC0180818A30B1F03C
:100340008B3361F413C089918A3081F08B3371F063
:100350000E9435020C171D07B1F708C08F010E94DB
:100360003502E801219608531F4FEDCFDF91CF9161
:100370001F910F9108950F931F93CF93DF938C01DB
:10038000FC0180818A3069F08B3379F40AC089914D
:100390008A3039F08B3329F00E9435020C171D0783
:1003A000B1F78AE00E94350207C00E943502E801D9
:1003B000219608531F4FEBCFDF91CF911F910F91E3
:1003C00008956B9A579A569A86E58093AC000895E3
:1003D0008093AE00EDEAF0E080818823ECF7089589
:1003E0008093AE00EDEAF0E080818823ECF7809105
:1003F000AE000895CF93DF93662381F0DC019C016A
:10040000260F311DCEEAD0E0EDEAF0E09D91988311
:1004100090819923ECF7A217B307C1F7DF91CF9131
:1004200008950F931F93CF93DF934423C9F0DC010A
:10043000062F172F9C01240F311DA9012EEA30E051
:10044000EDEAF0E09D91E901988390819923ECF722
:10045000E9019881E80199938E01A417B50791F7F6
:10046000DF91CF911F910F910895E0ECF0E0908122
:1004700095FFFDCF8093C600089598E99093C10041
:1004800096E09093C2008093C4000895F894FFCF43
:100490006E524632344C303120696E697469616C39
:1004A000697A65642E2E2E3B0054657374696E67FD
:1004B00020636F6D756E69636174696F6E2E2E2E89
:1004C0003B0057616974696E6720666F72206563CF
:1004D000686F2E2E2E3B004563686F207265636542
:0804E000697665643A203B00D7
:00000001FF
