:100000000C9466000C9403020C9483000C948300FF
:100010000C9483000C9483000C9483000C94830054
:100020000C9483000C9483000C9483000C94830044
:100030000C9483000C9483000C9483000C94830034
:100040000C9483000C9483000C9483000C94830024
:100050000C9483000C9483000C9483000C94830014
:100060000C9483000C9483000C9483000C94830004
:100070000C9483000C9483000C9483000C948300F4
:100080000C9483000C9483000C9483000C948300E4
:100090000C9483000C9483000C9483000C948300D4
:1000A0000C9483000C9483000C9483000C948300C4
:1000B0000C9483000C9483000C9483000C948300B4
:1000C0000C9483000C9483000C94830011241FBEB5
:1000D000CFEFD8E0DEBFCDBF11E0A0E0B1E0E4E3B8
:1000E000F5E002C005900D92AE32B107D9F721E0DC
:1000F000AEE2B1E001C01D92A133B207E1F70E9468
:1001000087000C9498020C9400006C9A08950E9449
:10011000850080E00E948F020E9457020E942D01FC
:100120002FE738E381E0215030408040E1F700C004
:1001300000009EB180E198279EB99FEF20E732E052
:10014000915020403040E1F700C000009EB1982758
:100150009EB99FEF20E732E0915020403040E1F718
:1001600000C000009EB198279EB99FEF20E732E0C3
:10017000915020403040E1F700C000009EB1982728
:100180009EB99FEF20E732E0915020403040E1F7E8
:1001900000C000009EB198279EB99FEF20E732E093
:1001A000915020403040E1F700C000009EB19827F8
:1001B0009EB99FEF20E732E0915020403040E1F7B8
:1001C00000C000009EB198279EB99FEF20E732E063
:1001D000915020403040E1F700C000009EB18927D7
:1001E0008EB98FEF99E628E1815090402040E1F7E9
:1001F00000C0000078940E94570185E091E00E94C1
:10020000B70180E091E00E94AF018AE091E00E9496
:1002100031028FE19EE40197F1F700C0000010E188
:10022000CEE2D1E08EB181278EB988818F5F88833D
:100230008EB181278EB962E0CE010E94C7010E9473
:100240003B018823E1F38EB181278EB98FE59AEEC9
:100250000197F1F700C00000E5CF549A569A5C98D8
:100260005E9AE898E9E6F0E0808182608083E89A0F
:100270000E94570208955E988FEF0E9466025E9A70
:1002800080720895CF93C62F5E988F7180620E940E
:100290005E0282E48A95F1F700C08C2F0E945E0214
:1002A0005E9A82E48A95F1F700C0CF9108956CE6DA
:1002B00085E00E9442016FEF84E00E94420160E00D
:1002C00081E10E94420162E082E10E94420160E01D
:1002D00083E10E94420160E084E10E94420160E00B
:1002E00085E10E94420160E086E10E94420166E2EF
:1002F00086E00E94420163E081E00E94420163E0E7
:1003000082E00E9442016FE484E00E944201109268
:10031000300160E787E00E9442015E9881EE0E9412
:100320005E025E9A6BE580E00E9442015C9A08954D
:100330001F93CF93DF93EB01142F5E988F71806230
:100340000E945E02612FCE010E9470025E9A82E4DA
:100350008A95F1F700C0DF91CF911F9108955C98C5
:1003600045E0BC018BE00E9498015C9A0895CF9310
:10037000DF93EC0145E0BC018AE00E94980145E072
:10038000BE0180E10E949801DF91CF9108951F93F3
:10039000CF93DF93EC01162F80913001882341F039
:1003A00083E291E00E943102809130018111F8CF07
:1003B0005C9881E0809330016AE580E00E94420110
:1003C0005E9881EE0E945E025E9A82E48A95F1F761
:1003D00000C060E787E00E9442015E9880EA0E94C8
:1003E0005E0282E48A95F1F700C0612FCE010E947F
:1003F000700282E48A95F1F700C05E9A5C9ADF9100
:10040000CF911F9108951F920F920FB60F92112452
:100410002F933F934F935F936F937F938F939F930C
:10042000AF93BF93EF93FF9380913001882341F006
:100430005C986BE580E00E9442015C9A109230016A
:10044000FF91EF91BF91AF919F918F917F916F91AC
:100450005F914F913F912F910F900FBE0F901F9082
:1004600018950F931F93CF93DF938C01FC0180812C
:100470008A3069F08B3379F40AC089918A3039F077
:100480008B3329F00E9487020C171D07B1F78AE011
:100490000E94870207C00E948702E8012196085344
:1004A0001F4FEBCFDF91CF911F910F9108956B9A62
:1004B000579A569A82E58093AC0008958093AE00D7
:1004C000EDEAF0E080818823ECF708958093AE0098
:1004D000EDEAF0E080818823ECF78091AE0008958A
:1004E000CF93DF93662381F0DC019C01260F311D41
:1004F000CEEAD0E0EDEAF0E09D91988390819923D7
:10050000ECF7A217B307C1F7DF91CF910895E0ECA4
:10051000F0E0908195FFFDCF8093C600089598E9A3
:100520009093C10096E09093C2008093C400089518
:04053000F894FFCF6D
:10053400D7D7D7D7D7E7E7E7E7E76E524632344C49
:10054400303120696E697469616C697A65642E2E34
:0E0554002E3B007768696C65285054582900CA
:00000001FF
