:100000000C9493000C94B0000C94B0000C94B000CD
:100010000C94B0000C94B0000C94B0000C94B000A0
:100020000C94B0000C94B0000C94B0000C94B00090
:100030000C94B0000C94B0000C94B0000C94B00080
:100040000C94B0000C94B0000C94B0000C94B00070
:100050000C94B0000C94B0000C94B0000C94B00060
:100060000C94B0000C94B0000C94B0000C94B00050
:100070000C94B0000C94B0000C94B0000C94B00040
:100080000C940A050C94B0000C94B0000C94B000D1
:100090000C94B0000C94B0000C94B0000C94B00020
:1000A0000C94B0000C94B0000C94B0000C94B00010
:1000B0000C94B0000C94B0000C94B0000C94B00000
:1000C0000C94B0000C94B0000C94B0000800000038
:1000D000BE922449123EABAAAA2ABECDCCCC4C3E3D
:1000E00000000080BEABAAAAAA3E00000000BF002C
:1000F0000000803F0000000000084178D3BB438728
:10010000D1133D190E3CC3BD4282AD2B3E68EC823B
:1001100076BED98FE1A93E4C80EFFFBE01C4FF7FC0
:100120003F000000000011241FBECFEFD8E0DEBF6B
:10013000CDBF11E0A0E0B1E0EEE4F2E102C0059035
:100140000D92A032B107D9F721E0A0E2B1E001C0E1
:100150001D92AC33B207E1F70E949A030C94250973
:100160000C940000ECE7F0E0808180648083EAE793
:10017000F0E08081876880830895ECE7F0E090816B
:10018000987F8770892B8083EAE7F0E08081806424
:100190008083808184FFFDCF209178008091790059
:1001A00090E0982F882788279F72822B0895DF92EE
:1001B000EF92FF920F931F93CF93DF93E62EF12CD4
:1001C0001E141F04ACF4D82EC0E0D0E000E010E014
:1001D0008D2D0E94BD00080F191F8FE99FE0019728
:1001E000F1F700C000002196CE15DF0589F702C0A7
:1001F00000E010E0C801B7010E94FD08CB01DF91CB
:10020000CF911F910F91FF90EF90DF90089500978D
:1002100069F020E030E0EFE9FFE03197F1F700C04E
:1002200000002F5F3F4F82179307A9F70895FF92B1
:100230000F931F93CF93DF93882371F08B01D82FF7
:10024000C0E0FF24F39498B19F2598B9C8010E949B
:100250000701CF5FDC13F7CFDF91CF911F910F9193
:10026000FF900895E0E8F0E0808181608083E1E81C
:10027000F0E080818A6080830895803B910514F0CE
:100280008FEA90E0992790938900809388000895E1
:10029000803B910514F08FEA90E0992790938B00B2
:1002A00080938A000895E0E8F0E080818F77808372
:1002B0000895E0E8F0E080818F7D80830895E0E894
:1002C000F0E08081806880830895E0E8F0E080813C
:1002D00080628083089529982A980895299A2A9AF5
:1002E00008958F929F92AF92BF92CF92DF92EF923A
:1002F000FF92CF93DF93C0913101D0913201C09032
:100300000001D0900101E0900201F09003016091A2
:100310002F0170913001072E000C880B990B0E9461
:1003200056074B015C01A701960160E070E080E890
:100330009FE30E943A069B01AC01C501B4010E94F3
:100340005B084B015C01BE01DD0F880B990B0E941D
:100350005607A70196010E945B089B01AC01C501ED
:10036000B4010E943B060E941E0770933201609305
:1003700031018091310190913201892B59F4109211
:100380003201109231010E9453010E9459010E94D2
:100390006B0102C00E946E01809131019091320187
:1003A000181619060CF044C0809131019091320169
:1003B00020912F0130913001821B930B9C0122F47C
:1003C00022273327281B390B2B303105F4F02091DD
:1003D00031013091320180912F01909130018217CB
:1003E000930754F480912F01909130010A969093D5
:1003F00032018093310109C080912F019091300129
:100400000A9790933201809331018091310190914C
:1004100032019093300180932F010E9459010E9474
:100420005F0180913101909132010E943D015AC0DB
:10043000809131019091320199230CF053C00E94B8
:1004400053010E9465018091310190913201919593
:10045000819591099093320180933101809131010E
:100460009091320120912F0130913001821B930B2A
:100470009C0122F422273327281B390B2B3031050E
:10048000F4F0209131013091320180912F0190914F
:1004900030018217930754F480912F01909130011D
:1004A0000A96909332018093310109C080912F0107
:1004B000909130010A97909332018093310180919D
:1004C0003101909132019093300180932F018091FE
:1004D00031019091320199231CF4919581959109F4
:1004E0000E944801DF91CF91FF90EF90DF90CF9075
:1004F000BF90AF909F908F900895E1E7F0E08081EA
:100500008D7F80830895E0E9F0E08081806C8083B6
:10051000E1E9F0E080818D60808384E09DE3909349
:10052000990080939800E1E7F0E080818260808309
:100530000E947D02089561E081E00E94D700BC0125
:10054000990F880B990B0E9456072CE53FE842EA69
:1005500050E40E945B0820E030EC4FE754E40E9436
:10056000AC0626E636E641EE52E40E945B082AE934
:1005700039E949E351E40E94AC060895CF92DF9235
:10058000EF92FF9261E080E00E94D700BC01990FDA
:10059000880B990B0E94560720E030EC4EE955E499
:1005A0000E945B0820E030EC4FE754E40E94AC0668
:1005B00020E030E04EED53E40E943A0620E030E0C7
:1005C00048EC53E40E94AC066B017C0120E030E073
:1005D000A9010E94A70688231CF4C12CD12C760106
:1005E000C701B601FF90EF90DF90CF90089561E0D2
:1005F00082E00E94D700BC01990F880B990B0E94E2
:1006000056079B01AC0160E070EC8FE794E40E9418
:10061000AC0620E030E040E85FE30E943A069B0130
:10062000AC0160E070E48CE196E40E94AC0620E04E
:1006300030E44CE156E40E94AC060E94130820E02E
:1006400030ED44E855E40E94AC062FE03FEC4BE56A
:100650005BE30E943B069B01AC0160E070E080E838
:100660009FE30E94AC0623E333E948E853E40E9489
:100670003A060895CF92DF92EF92FF926B017C01D0
:1006800020E030E048E252EC0E94A70688239CF06C
:1006900020E030E044E352E4C701B6010E940608BE
:1006A00018168CF40F2EC12CD12CF4E3EF2EF2E4AB
:1006B000FF2EF02D08C00F2EC12CD12CF8E2EF2E0A
:1006C000F2ECFF2EF02D24E331E146EB5DE3C701B0
:1006D000B6010E945B0820E030E048EB51E40E9444
:1006E0003B060E94250767BDFF90EF90DF90CF90FB
:1006F0000895389A399A3B9A3D9A40984198439880
:100700004598559A549A219A229A239A60E070E06B
:10071000CB010E943A030E946B01089584B583685F
:1007200084BD85B5856085BD60E070E0CB010E9429
:100730003A0308950E94790389E10E9431060E94DC
:10074000D5050E9419050E94460584E091E00E94AB
:1007500095050E9483020E947D020E94B2000E94C1
:1007600032010E946B010E948E03789462E370E074
:100770008AE00E94170189E091E00E94AF058FE3B3
:100780009CE90197F1F700C00000FF24F394C3E354
:10079000D1E06894DD24D1F86894EE24E3F80E9457
:1007A0003C0588B18F2588B945980E949B0220E0BE
:1007B00030E048EC52E40E945B080E941E077093F0
:1007C0002701609326016091260170912701009115
:1007D000240110912501072E000C880B990B0E9413
:1007E00056072AE939E949E95EE30E945B084B01B3
:1007F0005C01B801110F880B990B0E94560723E387
:1008000033E343E35FE30E945B089B01AC01C50156
:10081000B4010E943B060E941E077093270160935B
:1008200026018091260190912701909325018093C4
:1008300024010E94BE0220E030E048EC52E40E9415
:100840005B080E941E0770932B0160932A01609140
:100850002A0170912B010091280110912901072E86
:10086000000C880B990B0E9456072DEC3CEC4CECCD
:100870005DE30E945B084B015C01B801110F880B1E
:10088000990B0E94560726E636E646E65FE30E948D
:100890005B089B01AC01C501B4010E943B060E94AC
:1008A0001E0770932B0160932A0180912A01909179
:1008B0002B0190932901809328010E94F70220E0E8
:1008C00030E040E251E40E945B080E941E077093F2
:1008D0002301609322016091220170912301009114
:1008E000200110912101072E000C880B990B0E940A
:1008F000560720E030E040E05FE30E945B084B01D8
:100900005C01B801110F880B990B0E94560720E07B
:1009100030E040E05FE30E945B089B01AC01C50151
:10092000B4010E943B060E941E077093230160934E
:1009300022018091220190912301909321018093C3
:10094000200180912A0190912B01888380912A01B6
:1009500090912B01998380912601909127018A83A0
:1009600080912601909127019B8380912201909193
:1009700023018C8380912201909123019D8346E085
:10098000BE0180E00E949D0509C080912D01882351
:1009900029F010922D01F0922C0104C00E94200534
:1009A000882399F3479863E089E391E00E94670503
:1009B00080912C0181111CC088B18E2588B9E9E392
:1009C000F1E0818190E09093320180933101828146
:1009D00080932E010E94710160912E01062E000C61
:1009E000770B880B990B0E9456070E943A03D7CECB
:1009F00088B18D2588B910923201109231010E9480
:100A0000710110922C018FE99FE00197F1F700C06E
:100A10000000C5CE1F920F920FB60F9211248F9334
:100A200081E080932D018F910F900FBE0F901F904A
:100A300018953F9A569A47985E9A0E94D505089550
:100A40005E988FEF0E94E4055E9A80740895CF93BC
:100A5000C62F5E988F7180620E94DC0585E88A95BA
:100A6000F1F700008C2F0E94DC055E9A85E88A95DC
:100A7000F1F70000CF91089560E787E00E94270515
:100A80006BE580E00E942705479A08956CE685E0B3
:100A90000E94270566E08DE10E94270562E08CE157
:100AA0000E94270566E286E00E94270563E081E058
:100AB0000E94270563E082E00E9427056FEF84E033
:100AC0000E94270560E787E00E94270508951F938D
:100AD000CF93DF93EC01162F5E9881E60E94DC0530
:100AE000412FBE01CE010E9405065E9A60E487E0B8
:100AF0000E942705DF91CF911F9108951F93CF93F7
:100B0000DF93EB01142F5E988F7180620E94DC05E9
:100B1000612FCE010E94EE055E9A85E88A95F1F775
:100B20000000DF91CF911F910895479845E0BC01E7
:100B30008BE00E947E05479A08951F93CF93DF9321
:100B4000EB01142F5E98886A0E94DC05612FCE01AC
:100B50000E94EE055E9ADF91CF911F9108950F9349
:100B60001F93CF93DF938C01FC0180818A3069F061
:100B70008B3379F40AC089918A3039F08B3329F0AC
:100B80000E9429060C171D07B1F78AE00E9429066A
:100B900007C00E942906E801219608531F4FEBCF9A
:100BA000DF91CF911F910F9108956B9A579A569AA2
:100BB00082E58093AC0008958093AE00EDEAF0E00A
:100BC00080818823ECF708958093AE00EDEAF0E091
:100BD00080818823ECF78091AE000895CF93DF9356
:100BE000662381F0DC019C01260F311DCEEAD0E0A6
:100BF000EDEAF0E09D91988390819923ECF7A2179C
:100C0000B307C1F7DF91CF9108950F931F93CF934F
:100C1000DF934423C9F0DC01062F172F9C01240F1A
:100C2000311DA9012EEA30E0EDEAF0E09D91E901E5
:100C3000988390819923ECF7E9019881E8019993D1
:100C40008E01A417B50791F7DF91CF911F910F91F6
:100C50000895E0ECF0E0908195FFFDCF8093C60011
:100C6000089598E19093C10096E09093C20080931C
:100C7000C40008955058BB27AA270E9452060C941E
:100C8000CC070E94BE0738F00E94C50720F039F457
:100C90009F3F19F426F40C94BB070EF4E095E7FB94
:100CA0000C94B507E92F0E94DD0758F3BA176207C5
:100CB00073078407950720F079F4A6F50C94FF07D5
:100CC0000EF4E0950B2EBA2FA02D0B01B901900167
:100CD0000C01CA01A0011124FF27591B99F0593FAB
:100CE00050F4503E68F11A16F040A22F232F342FF3
:100CF0004427585FF3CF469537952795A795F04041
:100D00005395C9F77EF41F16BA0B620B730B840B55
:100D1000BAF09150A1F0FF0FBB1F661F771F881F0D
:100D2000C2F70EC0BA0F621F731F841F48F4879565
:100D300077956795B795F7959E3F08F0B0CF939557
:100D4000880F08F09927EE0F9795879508950E94D0
:100D5000910708F481E008950E94C0060C94CC0726
:100D60000E94C50758F00E94BE0740F029F45F3F7B
:100D700029F00C94B50751110C9400080C94BB0792
:100D80000E94DD0768F39923B1F3552391F3951B76
:100D9000550BBB27AA2762177307840738F09F5F9C
:100DA0005F4F220F331F441FAA1FA9F335D00E2E09
:100DB0003AF0E0E832D091505040E695001CCAF776
:100DC0002BD0FE2F29D0660F771F881FBB1F261739
:100DD00037074807AB07B0E809F0BB0B802DBF0110
:100DE000FF2793585F4F3AF09E3F510578F00C94DF
:100DF000B5070C9400085F3FE4F3983ED4F3869562
:100E000077956795B795F7959F5FC9F7880F911DFF
:100E10009695879597F90895E1E0660F771F881FEB
:100E2000BB1F621773078407BA0720F0621B730B9E
:100E3000840BBA0BEE1F88F7E09508950E942507F2
:100E40006894B1110C94000808950E94E50788F099
:100E50009F5798F0B92F9927B751B0F0E1F0660F7E
:100E6000771F881F991F1AF0BA95C9F714C0B130BF
:100E700091F00E94FF07B1E008950C94FF07672FDF
:100E8000782F8827B85F39F0B93FCCF386957795EE
:100E90006795B395D9F73EF49095809570956195D7
:100EA0007F4F8F4F9F4F0895E89409C097FB3EF402
:100EB00090958095709561957F4F8F4F9F4F9923A7
:100EC000A9F0F92F96E9BB279395F6958795779525
:100ED0006795B795F111F8CFFAF4BB0F11F460FFE5
:100EE0001BC06F5F7F4F8F4F9F4F16C0882311F03D
:100EF00096E911C0772321F09EE8872F762F05C051
:100F0000662371F096E8862F70E060E02AF09A95EB
:100F1000660F771F881FDAF7880F9695879597F9E0
:100F20000895990F0008550FAA0BE0E8FEEF16167A
:100F30001706E807F907C0F012161306E407F507CD
:100F400098F0621B730B840B950B39F40A2661F041
:100F5000232B242B252B21F408950A2609F4A140E4
:100F6000A6958FEF811D811D089597F99F6780E8F1
:100F700070E060E008959FEF80EC089500240A94EB
:100F80001616170618060906089500240A94121664
:100F90001306140605060895092E0394000C11F497
:100FA000882352F0BB0F40F4BF2B11F460FF04C044
:100FB0006F5F7F4F8F4F9F4F089557FD9058440F9D
:100FC000551F59F05F3F71F04795880F97FB991FA8
:100FD00061F09F3F79F08795089512161306140665
:100FE000551FF2CF4695F1DF08C0161617061806F2
:100FF000991FF1CF86957105610508940895E894CD
:10100000BB2766277727CB0197F908950E949107A0
:1010100008F48FEF089516F00C94C8080C94BB07E1
:1010200068940C94B5070E94E507A8F39923C1F3CF
:10103000AEF3DF93CF931F930F93FF92C92FDD275A
:1010400088232AF02197660F771F881FDAF720E0A0
:1010500030E040E85FEB9FE3883920F0803E38F0D5
:1010600021968F770E943B06ECECF0E004C00E94D2
:101070003B06E9EFF0E00E94D6088B01BE01EC01CF
:10108000FB2E6F5771097595771F880B990B0E947E
:10109000560728E132E741E35FE30E946E08AF2D77
:1010A0009801AE01FF900F911F91CF91DF910E94A7
:1010B00052060C94CC070E946E080C94CC070E9438
:1010C000BE0738F00E94C50720F0952311F00C945C
:1010D000B5070C94BB0711240C9400080E94DD078F
:1010E00070F3959FC1F3950F50E0551F629FF0017B
:1010F000729FBB27F00DB11D639FAA27F00DB11D94
:10110000AA1F649F6627B00DA11D661F829F22271C
:10111000B00DA11D621F739FB00DA11D621F839FA3
:10112000A00D611D221F749F3327A00D611D231F79
:10113000849F600D211D822F762F6A2F11249F57C7
:1011400050409AF0F1F088234AF0EE0FFF1FBB1FCA
:10115000661F771F881F91505040A9F79E3F510589
:1011600080F00C94B5070C9400085F3FE4F3983EC0
:10117000D4F3869577956795B795F795E7959F5F33
:10118000C1F7FE2B880F911D9695879597F90895C5
:101190009F3F31F0915020F4879577956795B795EB
:1011A000880F911D9695879597F90895DF93CF93B2
:1011B0001F930F93FF92EF92DF927B018C01689453
:1011C00006C0DA2EEF010E946E08FE01E894A59198
:1011D0002591359145915591A6F3EF010E94520654
:1011E000FE019701A801DA9469F7DF90EF90FF9074
:1011F0000F911F91CF91DF91089597FB072E16F461
:10120000009407D077FD09D00E94110907FC05D092
:101210003EF4909581959F4F0895709561957F4F0D
:101220000895AA1BBB1B51E107C0AA1FBB1FA6172D
:10123000B70710F0A61BB70B881F991F5A95A9F77F
:0E12400080959095BC01CD010895F894FFCFE4
:10124E003333333FD7D7D7D7D753797374656D20E0
:10125E00696E697469616C697A65642E2E2E3B0025
:00000001FF
