S01C00006E524632344C30315F41746D65676133323450422E7372656316
S11300000C9466000C9410020C9483000C948300EE
S11300100C9483000C9483000C9483000C94830050
S11300200C9483000C9483000C9483000C94830040
S11300300C9483000C9483000C9483000C94830030
S11300400C9483000C9483000C9483000C94830020
S11300500C9483000C9483000C9483000C94830010
S11300600C9483000C9483000C9483000C94830000
S11300700C9483000C9483000C9483000C948300F0
S11300800C9483000C9483000C9483000C948300E0
S11300900C9483000C9483000C9483000C948300D0
S11300A00C9483000C9483000C9483000C948300C0
S11300B00C9483000C9483000C9483000C948300B0
S11300C00C9483000C9483000C94830011241FBEB1
S11300D0CFEFD8E0DEBFCDBF11E0A0E0B1E0EAEBA6
S11300E0F6E002C005900D92AE32B107D9F721E0D7
S11300F0AEE2B1E001C01D92A133B207E1F70E9464
S113010087000C945B030C940000209A08950E94CD
S1130110850080E00E94F5020E94BD020E94350124
S11301202FE738E381E0215030408040E1F700C000
S1130130000095B181E0982795B99FEF20E732E060
S1130140915020403040E1F700C0000095B198275D
S113015095B99FEF20E732E0915020403040E1F71D
S113016000C0000095B1982795B99FEF20E732E0D1
S1130170915020403040E1F700C0000095B198272D
S113018095B99FEF20E732E0915020403040E1F7ED
S113019000C0000095B1982795B99FEF20E732E0A1
S11301A0915020403040E1F700C0000095B19827FD
S11301B095B99FEF20E732E0915020403040E1F7BD
S11301C000C0000095B1982795B99FEF20E732E071
S11301D0915020403040E1F700C0000095B18927DC
S11301E085B98FEF99E628E1815090402040E1F7EE
S11301F000C0000078940E94680185E091E00E94AC
S1130200C40180E091E00E94BC018AE091E00E9478
S113021041028FE19EE40197F1F700C00000CEE2B5
S1130220D1E011E08CE20E943E0288818F5F8883D6
S113023085B1812785B962E0CE010E94D4019AE19B
S11302409A95F1F700C00E9443018823E1F360E32B
S113025087E00E9453012FEF30E782E021503040C5
S11302608040E1F700C00000DDCF549A569A5C98B4
S11302705E9AE898E9E6F0E0808182608083E89AFB
S11302800E94BD020895CF935E988FEF0E94CC0226
S1130290C82F5E9A082E000C990B0E9467028C2FBF
S11302A08072CF910895CF93C62F5E988F7180622C
S11302B00E94C40282E48A95F1F700C08C2F0E9448
S11302C0C4025E9A82E48A95F1F700C0CF91089542
S11302D062E085E00E94530160E081E10E945301E5
S11302E062E082E10E94530160E083E10E945301D5
S11302F060E084E10E94530160E085E10E945301C3
S113030060E086E10E94530166E286E00E945301A8
S113031063E081E00E94530163E082E00E945301A4
S11303206FE484E00E9453011092300160E787E09B
S11303300E9453015E9881EE0E94C4025E9A6BE5AE
S113034080E00E9453015C9A08951F93CF93DF933A
S1130350EB01142F5E988F7180620E94C402612F9A
S1130360CE010E94D6025E9A82E48A95F1F700C01B
S1130370DF91CF911F9108955C9845E0BC018BE01B
S11303800E94A5015C9A0895CF93DF93EC0145E0A8
S1130390BC018AE00E94A50145E0BE0180E10E9403
S11303A0A501DF91CF9108951F93CF93DF93EC01C3
S11303B0162F80913001882341F083E291E00E945E
S11303C04102809130018111F8CF5C9881E08093E3
S11303D030016AE580E00E9453015E9881EE0E943C
S11303E0C4025E9A82E48A95F1F700C060E787E070
S11303F00E9453015E9880EA0E94C40282E48A95B6
S1130400F1F700C0612FCE010E94D60282E48A95E2
S1130410F1F700C05E9A5C9ADF91CF911F91089525
S11304201F920F920FB60F9211242F933F934F9365
S11304305F936F937F938F939F93AF93BF93EF9348
S1130440FF9380913001882341F05C986BE580E054
S11304500E9453015C9A10923001FF91EF91BF9179
S1130460AF919F918F917F916F915F914F913F9148
S11304702F910F900FBE0F901F9018950E94ED02C0
S113048008950F931F93CF93DF938C01FC01808118
S11304908A3069F08B3379F40AC089918A3039F053
S11304A08B3329F00E94ED020C171D07B1F78AE087
S11304B00E94ED0207C00E94ED02E8012196085354
S11304C01F4FEBCFDF91CF911F910F910895EF92C2
S11304D0FF920F931F93CF93DF93CDB7DEB7E297CD
S11304E00FB6F894DEBF0FBECDBF8C01009789F123
S11304F020E030E0EAE0F0E001C09701BF010E9493
S1130500FE02CB0179014FEFE41AF40A0097A9F730
S1130510112324F4790182E0E80EF11C4AE0BE01C3
S11305206F5F7F4FC8010E9426031E141F046CF4E2
S11305308E010F5F1F4FE00EF11EF80181918F01B4
S11305400E94ED020E151F05C1F78AE00E94ED021C
S113055007C04AE0BE016F5F7F4F0E942603F5CFBC
S1130560E2960FB6F894DEBF0FBECDBFDF91CF91F8
S11305701F910F91FF90EF9008956B9A579A569A96
S113058082E58093AC0008958093AE00EDEAF0E03C
S113059080818823ECF708958093AE00EDEAF0E0C3
S11305A080818823ECF78091AE000895CF93DF9388
S11305B0662381F0DC019C01260F311DCEEAD0E0D8
S11305C0EDEAF0E09D91988390819923ECF7A217CE
S11305D0B307C1F7DF91CF910895E0ECF0E090818B
S11305E095FFFDCF8093C600089598E99093C100CC
S11305F096E09093C2008093C400089597FB072E61
S113060016F4009407D077FD09D00E94120307FC6A
S113061005D03EF4909581959F4F0895709561950E
S11306207F4F0895AA1BBB1B51E107C0AA1FBB1F24
S1130630A617B70710F0A61BB70B881F991F5A956A
S1130640A9F780959095BC01CD010895BB274A3048
S113065031F4992322F4BDE2909581959F4F0C9437
S11306603203BB27FB015527AA27880F991FAA1F0E
S1130670A41710F0A41B83955051B9F7A05DAA33B9
S113068008F0A95DA193009779F7B111B193119284
S1130690CB010C944B03DC01FC01672F7191772390
S11306A0E1F7329704C07C916D9370836291AE1729
S10D06B0BF07C8F30895F894FFCFC4
S11306BAD7D7D7D7D7E7E7E7E7E76E524632344CBE
S11306CA303120696E697469616C697A65642E2EA9
S11106DA2E3B007768696C652850545829003F
S9030000FC
