S01C00006E524632344C30315F41746D65676133323450422E7372656316
S11300000C9466000C9483000C9483000C9483007D
S11300100C9483000C9483000C9483000C94830050
S11300200C9483000C9483000C9483000C94830040
S11300300C9483000C9483000C9483000C94830030
S11300400C9483000C9483000C9483000C94830020
S11300500C941F030C9483000C9483000C94830071
S11300600C9483000C9483000C9483000C94830000
S11300700C9483000C9483000C9483000C948300F0
S11300800C9483000C9483000C9483000C948300E0
S11300900C9483000C9483000C9483000C948300D0
S11300A00C9483000C9483000C9483000C948300C0
S11300B00C9483000C9483000C9483000C948300B0
S11300C00C9483000C9483000C94830011241FBEB1
S11300D0CFEFD8E0DEBFCDBF11E0A0E0B1E0E2E8B1
S11300E0FDE002C005900D92AA30B107D9F721E0D6
S11300F0AAE0B1E001C01D92A037B207E1F70E9467
S11301009C010C94BF060C940000ECE7F0E08081A5
S113011080648083EAE7F0E08081876880830895C3
S1130120E0E8F0E0808181608083E1E8F0E08081B4
S1130130896080830895BC01990F880B990B0E94F4
S1130140A0052FE632E143E85EE30E942C0620E09E
S113015030E040E85FE30E94FB040E946805693CCC
S1130160710514F068EC70E0772770938900609350
S113017088000895BC01990F880B990B0E94A00573
S11301802FE632E143E85EE30E942C0620E030E0F3
S113019040E85FE30E94FB040E946805693C710526
S11301A014F068EC70E0772770938B0060938A00FA
S11301B00895E0E8F0E080818F7780830895E0E897
S11301C0F0E080818F7D80830895E0E8F0E0808115
S11301D0806880830895E0E8F0E080818062808315
S11301E0089529982A980895299A2A9A089584B5F1
S11301F0836884BD85B5846085BD8DE387BD08951E
S1130200E1E9F0E080818460808308956C9A559AD6
S1130210549A219A229A239A0895009769F020E02B
S113022030E0EFECF7E03197F1F700C000002F5F0A
S11302303F4F82179307A9F70895FF920F931F93D7
S1130240CF93DF93882379F08B01D82FC0E0689493
S1130250FF24F4F89EB19F259EB9C8010E940D01A8
S1130260CF5FDC13F7CFDF91CF911F910F91FF90F8
S1130270089510921A011092190110921801109207
S113028017010E94D9000E94DF000E94F100089526
S11302900F931F93CF93DF9300D0CDB7DEB70EE556
S11302A011E0F8018081898381818A83CE010196DE
S11302B00E94990680930F01F801828189838381CA
S11302C08A83CE0101960E94990680930E01F8015B
S11302D08581898386818A83CE0101960E9499064D
S11302E080930D0107E611E0F80180818983818103
S11302F08A83CE0101960E94990680930C01F8012D
S11303008281898383818A83CE0101960E94990622
S113031080930B01F8018581898386818A83CE01CC
S113032001960E94990680930A010F900F90DF9125
S1130330CF911F910F9108950E94060183E30E94BB
S1130340E6040E9492040E94A9030E94EA0385E045
S113035091E00E945A0480E091E00E9452040E94BD
S113036085000E9490000E94F7000E94000178948A
S113037062E370E08AE00E941D012FEF89E698E1B4
S1130380215080409040E1F700C000008FE19EE4DE
S11303900197F1F700C000006894BB24B4F8C4E9E5
S11303A0D0E00F2EFCEEEF2EFF24FA94F02D04E1A2
S11303B010E0AA24A3948EB18B258EB980911401E8
S11303C0833320F0109214010E94EA0319821882E8
S11303D00DC0888199818D3D954040F00E9439017E
S11303E0809114018F5F8093140116C10E94B003A1
S11303F0882379F38091150181110EC18BE191E07D
S11304000E94270480911B018E3419F40E94EF048A
S113041005C1893519F40E94F50400C1813431F510
S1130420EBE1F1E080910F01808380910E018183E3
S113043080910D0182831982188263E0CF010E94AA
S11304406A040DC0888199818D3D954040F080916A
S113045014018F5F80931401A092150104C00E94BF
S1130460BD03882379F30E94D903D8C08F3491F552
S1130470EBE1F1E080910C01808380910B01818399
S113048080910A0182831982188263E0CF010E945D
S11304906A040DC0888199818D3D954040F080911A
S11304A014018F5F80931401A092150104C00E946F
S11304B0BD03882379F310920F0110920E0110925C
S11304C00D0110920C0110920B0110920A010E946E
S11304D0D903A4C0EBE1F1E09181C82E880FDD08B7
S11304E0DC2CCC24C92AD0921A01C0921901828131
S11304F0082E000C990B853191052CF010931801EE
S1130500009317010DC08C3E2FEF92072CF09093AF
S113051018018093170104C0F0921801E0921701AA
S11305206091170170911801072E000C880B990B2C
S11305300E94A00520E030E040E45FE30E942C0626
S11305402B013C0160911601062E000C770B880BE1
S1130550990B0E94A00520E030E040E85EE30E9491
S11305602C069B01AC01C301B2010E94FC040E9451
S1130570680560931701709318016093160183E670
S1130580C80ED11C97ECC916D10438F40E94D900C6
S11305900E94DF000E94F10025C00E94F4008091B7
S11305A0190190911A01181619065CF40E94DF00D3
S11305B00E94E5008091190190911A010E949B000C
S11305C011C099237CF40E94D9000E94EB00809111
S11305D0190190911A0199231CF49195819591091F
S11305E00E94BA006091170170911801072E000C47
S11305F0880B990B0E94A0052FE832EC45EB5EE3D3
S11306000E942C0620E030E048E352E40E94FC04FF
S11306100E946F0567BD02C0109215018091100100
S1130620882331F010921001F8940E9448017894C4
S11306308FE097E20197F1F700C00000BCCE1F9253
S11306400F920FB60F9211242F938F939F93AF9312
S1130650BF93EF93FF93E09113018091C600F0E004
S1130660E25EFE4F8083E0911301F0E0E25EFE4F14
S11306708081843219F481E0809312018091120107
S1130680882311F1E0911301F0E0E25EFE4F8081D6
S11306908C32A9F480912101823561F48091220188
S11306A08D3441F480912301833421F481E08093DB
S11306B0110102C0109213011092120105C0809121
S11306C013018F5F80931301809111018823A9F195
S11306D0E0911301F0E0E25EFE4F80818A3241F541
S11306E0E1E3F1E080E090E02191DC01A25ABE4F09
S11306F02C93019687309105B9F78AE080936501C0
S1130700EFE3F1E080E090E02191DC01A959BE4FD4
S11307102C93019687309105B9F78AE080936E0196
S1130720109211011092130181E08093100105C011
S1130730809113018F5F80931301FF91EF91BF911B
S1130740AF919F918F912F910F900FBE0F901F909B
S113075018953F9A569A47985E9A0E949204089573
S113076080916F01811107C05E988FEF0E94A104F0
S11307705E9A8074089580E008955E988FEF0E94D9
S1130780A1045E9A80720895CF93C62F5E988F71EC
S113079080620E94990482E48A95F1F700C08C2F4C
S11307A00E9499045E9A82E48A95F1F700C0CF9181
S11307B0089510926F0160E787E00E94C4035E9879
S11307C081EE0E9499045E9A6BE580E00E94C40366
S11307D0479A08956CE685E00E94C40360E081E1D5
S11307E00E94C40363E082E10E94C40360E083E1E9
S11307F00E94C40360E084E10E94C40360E085E1D8
S11308000E94C40360E086E10E94C40366E286E0BD
S11308100E94C40363E081E00E94C40363E082E0B9
S11308200E94C4036FE484E00E94C40310926F0129
S113083060E787E00E94C4035E9881EE0E949904F9
S11308405E9A6BE580E00E94C403479A0895CF93B3
S1130850DF93EC015E9881E60E94990443E0BE01B7
S1130860CE010E94C2045E9A60E487E00E94C40341
S1130870DF91CF9108951F93CF93DF93EB01142F52
S11308805E988F7180620E949904612FCE010E944C
S1130890AB045E9A82E48A95F1F700C0DF91CF91B0
S11308A01F910895479845E0BC018BE00E943B04EA
S11308B0479A0895CF93DF93EC0145E0BC018AE0A9
S11308C00E943B0445E0BE0180E10E943B04DF91AD
S11308D0CF9108951F93CF93DF93EC01162F479880
S11308E081E080936F016AE580E00E94C4035E9812
S11308F081EE0E9499045E9A82E48A95F1F700C021
S113090060E787E00E94C4035E9880EA0E9499042D
S1130910612FCE010E94AB045E9A479ADF91CF917A
S11309201F9108956B9A579A569A82E58093AC006A
S113093008958093AE00EDEAF0E080818823ECF71F
S113094008958093AE00EDEAF0E080818823ECF70F
S11309508091AE000895CF93DF93662381F0DC018C
S11309609C01260F311DCEEAD0E0EDEAF0E09D9126
S1130970988390819923ECF7A217B307C1F7DF910D
S1130980CF9108950F931F93CF93DF934423C9F01E
S1130990DC01062F172F9C01240F311DA9012EEA1B
S11309A030E0EDEAF0E09D91E9019883908199238C
S11309B0ECF7E9019881E80199938E01A417B50732
S11309C091F7DF91CF911F910F91089598E990933A
S11309D0C10096E09093C2008093C4000895E1ECB6
S11309E0F0E080818F7780830895E1ECF0E08081EE
S11309F08068808308955058BB27AA270E94130556
S1130A000C94F2050E94E40538F00E94EB0520F0F6
S1130A1039F49F3F19F426F40C94E1050EF4E095A3
S1130A20E7FB0C94DB05E92F0E94030658F3BA1781
S1130A30620773078407950720F079F4A6F50C94F0
S1130A4025060EF4E0950B2EBA2FA02D0B01B9014B
S1130A5090010C01CA01A0011124FF27591B99F030
S1130A60593F50F4503E68F11A16F040A22F232F3C
S1130A70342F4427585FF3CF469537952795A7958C
S1130A80F0405395C9F77EF41F16BA0B620B730B33
S1130A90840BBAF09150A1F0FF0FBB1F661F771FA4
S1130AA0881FC2F70EC0BA0F621F731F841F48F459
S1130AB0879577956795B795F7959E3F08F0B0CFE2
S1130AC09395880F08F09927EE0F979587950895C9
S1130AD00E946F056894B1110C94260608950E9433
S1130AE00B0688F09F5798F0B92F9927B751B0F0AB
S1130AF0E1F0660F771F881F991F1AF0BA95C9F79E
S1130B0014C0B13091F00E942506B1E008950C9410
S1130B102506672F782F8827B85F39F0B93FCCF3C3
S1130B20869577956795B395D9F73EF4909580951A
S1130B30709561957F4F8F4F9F4F0895E89409C03A
S1130B4097FB3EF490958095709561957F4F8F4FFC
S1130B509F4F9923A9F0F92F96E9BB279395F69512
S1130B60879577956795B795F111F8CFFAF4BB0F90
S1130B7011F460FF1BC06F5F7F4F8F4F9F4F16C0F4
S1130B80882311F096E911C0772321F09EE8872F7E
S1130B90762F05C0662371F096E8862F70E060E03A
S1130BA02AF09A95660F771F881FDAF7880F9695B3
S1130BB0879597F9089597F99F6780E870E060E05A
S1130BC008959FEF80EC089500240A9416161706E2
S1130BD018060906089500240A941216130614062A
S1130BE005060895092E0394000C11F4882352F08D
S1130BF0BB0F40F4BF2B11F460FF04C06F5F7F4F45
S1130C008F4F9F4F089557FD9058440F551F59F02B
S1130C105F3F71F04795880F97FB991F61F09F3FE5
S1130C2079F087950895121613061406551FF2CF0E
S1130C304695F1DF08C0161617061806991FF1CF5E
S1130C4086957105610508940895E894BB27662785
S1130C507727CB0197F908950E943F060C94F2057B
S1130C600E94E40538F00E94EB0520F0952311F072
S1130C700C94DB050C94E10511240C9426060E94C7
S1130C80030670F3959FC1F3950F50E0551F629FC3
S1130C90F001729FBB27F00DB11D639FAA27F00DD1
S1130CA0B11DAA1F649F6627B00DA11D661F829FF8
S1130CB02227B00DA11D621F739FB00DA11D621FDD
S1130CC0839FA00D611D221F749F3327A00D611DFA
S1130CD0231F849F600D211D822F762F6A2F1124DC
S1130CE09F5750409AF0F1F088234AF0EE0FFF1F0F
S1130CF0BB1F661F771F881F91505040A9F79E3F66
S1130D00510580F00C94DB050C9426065F3FE4F358
S1130D10983ED4F3869577956795B795F795E795BB
S1130D209F5FC1F7FE2B880F911D9695879597F9C4
S1130D300895FC0188279927E89421912032E9F34A
S1130D40293010F02E30C8F32B3241F02D3239F413
S1130D50689404C00E94B706820F911D219120530C
S1130D602A30C0F31EF4909581959F4F08957AE040
S1130D70979F902D879F802D910D11240895F894AD
S1050D80FFCF9F
S10D0D82E7E7E7E7E7D7D7D7D7D7AD
S9030000FC
