S01C00006E524632344C30315F41746D65676133323450422E7372656316
S11300000C9466000C9483000C9483000C9483007D
S11300100C9483000C9483000C9483000C94830050
S11300200C9483000C9483000C9483000C94830040
S11300300C9483000C9424010C9483000C9483008E
S11300400C9483000C9483000C9483000C94830020
S11300500C9483000C9483000C9483000C94830010
S11300600C9483000C9483000C9483000C94830000
S11300700C9483000C9483000C9483000C948300F0
S11300800C9483000C9483000C9483000C948300E0
S11300900C9483000C9483000C9483000C948300D0
S11300A00C9483000C9483000C9483000C948300C0
S11300B00C9483000C9483000C9483000C948300B0
S11300C00C9483000C9483000C94830011241FBEB1
S11300D0CFEFD8E0DEBFCDBF11E0A0E0B1E0ECE3AC
S11300E0FCE002C005900D92A033B107D9F721E0DE
S11300F0A0E3B1E001C01D92AB33B207E1F70E9467
S1130100CA000C941C060C9400006C9A3C9A089546
S1130110009769F020E030E0EFECF7E03197F1F779
S113012000C000002F5F3F4F82179307A9F708957F
S1130130FF920F931F93CF93DF93882379F08B0162
S1130140D82FC0E06894FF24F4F89EB19F259EB98F
S1130150C8010E948800CF5FDC13F7CFDF91CF91F5
S11301601F910F91FF900895E0E8F0E08081806C8A
S11301708083E1E8F0E080818D60808384E89EE103
S11301809093890080938800EFE6F0E0808182609C
S1130190808308950E9485008CE00E9484030E945D
S11301A04C030E94FA010E94310280E091E00E9417
S11301B079020E94B400E8E3F1E08AE0808384E1FC
S11301C081838EE18283789462E370E08AE00E9406
S11301D098008FE19EE40197F1F700C00000689455
S11301E0FF24F4F8C8E3D1E00C2F1D2F8EB18F2526
S11301F08EB988818F5F888389818F5F89838A81A3
S11302008F5F8A8363E0802F912F0E9489028091FF
S11302103401909135010196909335018093340116
S11302200EC00E940E02882351F0809136019091F5
S1130230370101969093370180933601D7CF0E94FE
S11302400102882371F3D2CF1F920F920FB60F923F
S11302501124CF92DF92EF92FF922F933F934F930B
S11302605F936F937F938F939F93AF93BF93CF933A
S1130270DF93EF93FF9385E091E00E94B0028091B9
S11302803401909135010E94F90282E191E00E94CB
S1130290D3026091360170913701C0913401D0913D
S11302A0350180E090E00E949B046B017C01BE015B
S11302B080E090E00E949B049B01AC01C701B60161
S11302C00E94FA03609330017093310180933201EC
S11302D0909333016091300170913101809132012A
S11302E09091330124EA30E74DE75FE30E9429054A
S11302F0181664F484EA90E7ADE7BFE38093300115
S113030090933101A0933201B093330120913001D5
S113031030913101409132015091330160E070E03D
S113032080E89FE30E948D03609330017093310154
S113033080933201909333016091300170913101C7
S1130340809132019091330120E030E048EC52E496
S11303500E942E0560933001709331018093320125
S11303609093330160913001709131018091320199
S1130370909133010E946C047093370160933601AD
S11303808CE191E00E94B002809136019091370196
S11303900E94F90285E20E94AD028AE00E94AD0249
S11303A08AE00E94AD02109235011092340110923D
S11303B030011092310110923201109233011092E7
S11303C0370110923601FF91EF91DF91CF91BF91E8
S11303D0AF919F918F917F916F915F914F913F91D9
S11303E02F91FF90EF90DF90CF900F900FBE0F9062
S11303F01F9018953F9A569A47985E9A0E944C030C
S113040008955E988FEF0E945B035E9AEFECF7E02D
S11304103197F1F700C00000807208955E988FEF65
S11304200E945B035E9AEFECF7E03197F1F700C0AE
S11304300000829581700895CF93C62F5E988F71C6
S113044080620E94530382E48A95F1F700C08C2FE6
S11304500E9453035E9A82E48A95F1F700C0CF911B
S113046008956CE685E00E941C0263E081E10E942D
S11304701C0260E082E10E941C0260E083E10E94B1
S11304801C0260E084E10E941C0260E085E10E949D
S11304901C0260E086E10E941C0266E086E00E9485
S11304A01C0261E081E00E941C0261E082E00E9483
S11304B01C026FEF84E00E941C0260E787E00E9448
S11304C01C0208951F93CF93DF93EB01142F5E98C2
S11304D08F7180620E945303612FCE010E946503D5
S11304E05E9A82E48A95F1F700C0DF91CF911F9163
S11304F00895CF93DF93EC0145E0BC018AE00E94AC
S1130500620245E0BE0180E10E946202DF91CF9168
S113051008951F93CF93DF93EC01162F47986AE554
S113052080E00E941C0282E48A95F1F700C060E733
S113053087E00E941C025E9880EA0E945303612FA8
S1130540CE010E9465035E9A479A88E28A95F1F784
S11305504798DF91CF911F9108950E947C030895DD
S11305600F931F93CF93DF93FC0180818A30B1F006
S11305708B3361F413C089918A3081F08B3371F02D
S11305800E947C030C171D07B1F708C08F010E945D
S11305907C03E801219608531F4FEDCFDF91CF91E3
S11305A01F910F9108950F931F93CF93DF938C01A5
S11305B0FC0180818A3069F08B3379F40AC0899117
S11305C08A3039F08B3329F00E947C030C171D0705
S11305D0B1F78AE00E947C0307C00E947C03E80113
S11305E0219608531F4FEBCFDF91CF911F910F91AD
S11305F00895EF92FF920F931F93CF93DF93CDB79C
S1130600DEB7C054D1090FB6F894DEBF0FBECDBF1C
S11306108C01009731F480E30E947C03E12CF12CDF
S113062016C020E030E0EAE0F0E001C09701BF012D
S11306300E94BF05CB0179014FEFE41AF40A009739
S1130640A9F7112324F4790182E0E80EF11C4AE0B1
S1130650BE016F5F7F4FC8010E94E7051E141F048F
S11306606CF48E010F5F1F4FE00EF11EF8018191B3
S11306708F010E947C030E151F05C1F7C05CDF4F7C
S11306800FB6F894DEBF0FBECDBFDF91CF911F919F
S11306900F91FF90EF9008956B9A579A569A82E5BE
S11306A08093AC0008958093AE00EDEAF0E0808181
S11306B08823ECF708958093AE00EDEAF0E08081A2
S11306C08823ECF78091AE000895CF93DF936623DF
S11306D081F0DC019C01260F311DCEEAD0E0EDEA69
S11306E0F0E09D91988390819923ECF7A217B307CA
S11306F0C1F7DF91CF910895E0ECF0E0908195FF90
S1130700FDCF8093C600089598E99093C10096E0C8
S11307109093C2008093C40008955058BB27AA2721
S11307200E94A5030C94EF040E94E10438F00E9497
S1130730E80420F039F49F3F19F426F40C94DE0405
S11307400EF4E095E7FB0C94D804E92F0E94000511
S113075058F3BA17620773078407950720F079F4F2
S1130760A6F50C9422050EF4E0950B2EBA2FA02DBD
S11307700B01B90190010C01CA01A0011124FF274A
S1130780591B99F0593F50F4503E68F11A16F04045
S1130790A22F232F342F4427585FF3CF4695379544
S11307A02795A795F0405395C9F77EF41F16BA0B09
S11307B0620B730B840BBAF09150A1F0FF0FBB1FB7
S11307C0661F771F881FC2F70EC0BA0F621F731F00
S11307D0841F48F4879577956795B795F7959E3F5D
S11307E008F0B0CF9395880F08F09927EE0F9795EE
S11307F0879508950E940E040C94EF040E94E80467
S113080058F00E94E10440F029F45F3F29F00C9471
S1130810D80451110C9423050C94DE040E940005A5
S113082068F39923B1F3552391F3951B550BBB271B
S1130830AA2762177307840738F09F5F5F4F220F60
S1130840331F441FAA1FA9F335D00E2E3AF0E0E857
S113085032D091505040E695001CCAF72BD0FE2FA1
S113086029D0660F771F881FBB1F26173707480735
S1130870AB07B0E809F0BB0B802DBF01FF279358ED
S11308805F4F3AF09E3F510578F00C94D8040C94D5
S113089023055F3FE4F3983ED4F3869577956795F7
S11308A0B795F7959F5FC9F7880F911D9695879522
S11308B097F90895E1E0660F771F881FBB1F621741
S11308C073078407BA0720F0621B730B840BBA0BFF
S11308D0EE1F88F7E09508950E94080588F09F5759
S11308E098F0B92F9927B751B0F0E1F0660F771F50
S11308F0881F991F1AF0BA95C9F714C0B13091F046
S11309000E942205B1E008950C942205672F782FE8
S11309108827B85F39F0B93FCCF38695779567950A
S1130920B395D9F73EF490958095709561957F4F76
S11309308F4F9F4F0895E89409C097FB3EF490951C
S11309408095709561957F4F8F4F9F4F9923A9F0A4
S1130950F92F96E9BB279395F69587957795679533
S1130960B795F111F8CFFAF4BB0F11F460FF1BC077
S11309706F5F7F4F8F4F9F4F16C0882311F096E90A
S113098011C0772321F09EE8872F762F05C06623B8
S113099071F096E8862F70E060E02AF09A95660F71
S11309A0771F881FDAF7880F9695879597F908952A
S11309B097F99F6780E870E060E008959FEF80EC0E
S11309C0089500240A9416161706180609060895B1
S11309D000240A9412161306140605060895092E17
S11309E00394000C11F4882352F0BB0F40F4BF2B86
S11309F011F460FF04C06F5F7F4F8F4F9F4F0895C6
S1130A0057FD9058440F551F59F05F3F71F04795BB
S1130A10880F97FB991F61F09F3F79F087950895A0
S1130A20121613061406551FF2CF4695F1DF08C0BF
S1130A30161617061806991FF1CF869571056105DC
S1130A4008940895E894BB2766277727CB0197F984
S1130A5008950E949B0508F48FEF08950E944105B4
S1130A600C94EF040E94E10438F00E94E80420F0A2
S1130A70952311F00C94D8040C94DE0411240C94E6
S1130A8023050E94000570F3959FC1F3950F50E074
S1130A90551F629FF001729FBB27F00DB11D639F2C
S1130AA0AA27F00DB11DAA1F649F6627B00DA11DD2
S1130AB0661F829F2227B00DA11D621F739FB00D78
S1130AC0A11D621F839FA00D611D221F749F3327E8
S1130AD0A00D611D231F849F600D211D822F762F81
S1130AE06A2F11249F5750409AF0F1F088234AF05E
S1130AF0EE0FFF1FBB1F661F771F881F91505040CA
S1130B00A9F79E3F510580F00C94D8040C9423055A
S1130B105F3FE4F3983ED4F3869577956795B79550
S1130B20F795E7959F5FC1F7FE2B880F911D96956A
S1130B30879597F90895990F0008550FAA0BE0E8D7
S1130B40FEEF16161706E807F907C0F0121613068B
S1130B50E407F50798F0621B730B840B950B39F4CB
S1130B600A2661F0232B242B252B21F408950A2631
S1130B7009F4A140A6958FEF811D811D089597FB6F
S1130B80072E16F4009407D077FD09D00E94D305F0
S1130B9007FC05D03EF4909581959F4F089570957C
S1130BA061957F4F0895AA1BBB1B51E107C0AA1F83
S1130BB0BB1FA617B70710F0A61BB70B881F991FFA
S1130BC05A95A9F780959095BC01CD010895BB274E
S1130BD04A3031F4992322F4BDE2909581959F4FD8
S1130BE00C94F305BB27FB015527AA27880F991FEF
S1130BF0AA1FA41710F0A41B83955051B9F7A05D48
S1130C00AA3308F0A95DA193009779F7B111B193C4
S1130C101192CB010C940C06DC01FC01672F71913D
S1130C207723E1F7329704C07C916D9370836291CE
S10F0C30AE17BF07C8F30895F894FFCF77
S1130C3CD7D7D7D7D76461746120726174653A20B1
S1130C4C3B0020706B742F7365633B005369676EB4
S1130C5C616C20737472656E6774683A203B000093
S9030000FC
