S01C00006E524632344C30315F41746D65676133323450422E7372656316
S11300000C9466000C9483000C9483000C9483007D
S11300100C9483000C9483000C9483000C94830050
S11300200C9483000C9483000C9483000C94830040
S11300300C9483000C9483000C9483000C94830030
S11300400C9483000C9483000C9483000C94830020
S11300500C940E030C9483000C9483000C94830082
S11300600C9483000C9483000C9483000C94830000
S11300700C9483000C9483000C9483000C948300F0
S11300800C9483000C9483000C9483000C948300E0
S11300900C9483000C9483000C9483000C948300D0
S11300A00C9483000C9483000C9483000C948300C0
S11300B00C9483000C9483000C9483000C948300B0
S11300C00C9483000C9483000C94830011241FBEB1
S11300D0CFEFD8E0DEBFCDBF11E0A0E0B1E0EEE7A6
S11300E0FDE002C005900D92AA31B107D9F721E0D5
S11300F0AAE1B1E001C01D92A537B207E1F70E9461
S1130100F9010C94BD060C940000ECE7F0E080814A
S113011080648083EAE7F0E08081876880830895C3
S1130120ECE7F0E09081987F8770892B8083EAE781
S1130130F0E0808180648083808184FFFDCF209102
S113014078008091790090E0982F882788279F7203
S1130150822B0895E0E8F0E0808181608083E1E80B
S1130160F0E08081896080830895BC01990F880B39
S1130170990B0E943E052FE632E143E85EE30E94BC
S1130180F30520E030E040E85FE30E9422040E948F
S11301900605693C710514F068EC70E077277093EC
S11301A08900609388000895BC01990F880B990B0E
S11301B00E943E052FE632E143E85EE30E94F30528
S11301C020E030E040E85FE30E9422040E9406053C
S11301D0693C710514F068EC70E0772770938B002C
S11301E060938A000895E0E8F0E080818F7780834F
S11301F00895E0E8F0E080818F7D80830895E0E851
S1130200F0E08081806880830895E0E8F0E08081F8
S113021080628083089529982A980895299A2A9AB1
S1130220089584B5836884BD85B5846085BD8EE3F7
S113023087BD08956C9A559A549A219A229A239AC2
S11302400895009769F020E030E0EFECF7E0319793
S1130250F1F700C000002F5F3F4F82179307A9F703
S11302600895FF920F931F93CF93DF93882379F020
S11302708B01D82FC0E06894FF24F4F89EB19F2529
S11302809EB9C8010E942101CF5FDC13F7CFDF9133
S1130290CF911F910F91FF9008959C012D5C3140E7
S11302A02F34310590F08D3122E092072CF0845FD9
S11302B09140880F991F0BC08C3C21E092073CF4BD
S11302C0845F9140880F991F02C080E090E0893ECE
S11302D023E0920714F088EE93E00895CF92DF9222
S11302E0EF92FF926B017C0120E030E047E054E4A0
S11302F00E948F0488235CF420E030E046EE53E44F
S1130300C701B6010E94EE0518160CF45CC020E08B
S113031030E047E054E4C701B6010E94EE05181628
S1130320ACF420E030E04AEF53E4C701B6010E9488
S113033022049B01AC010E9423042AE939E941EB20
S113034051E40E9494046B017C0120C020E030E061
S113035046EE53E4C701B6010E948F048823B4F427
S1130360A701960160E070E08AEF93E40E94220402
S113037020E030E040E050EC0E94F3052AE939E93E
S113038041EB51E40E9494046B017C0120E030E0D5
S11303904AE754E4C701B6010E94EE051816BCF002
S11303A020E030E04AE754ECC701B6010E948F0414
S11303B08823ACF40F2EC12CD12CFAE7EF2EF4ECE9
S11303C0FF2EF02D0CC0C12CD12C760108C00F2EAD
S11303D0C12CD12CFAE7EF2EF4E4FF2EF02DC70147
S11303E0B6010E940605CB01FF90EF90DF90CF90FD
S11303F008950E941A0183E30E9419040E94850053
S11304000E94AA000E94110162E370E08AE00E9447
S113041031012FEF89E698E1215080409040E1F7C7
S113042000C00000789480E091E00E9495038FE181
S11304309EE40197F1F700C000006894FF24F4F8EB
S113044003ED1FEFCDE2D0E08EB18F258EB981E0B0
S11304500E9490000E944D016C01609120017091F6
S11304602101072E000C880B990B0E943E0520E009
S113047030E040E45FE30E94F3054B015C01B60108
S1130480DD0C880B990B0E943E0520E030E040E82B
S11304905EE30E94F3059B01AC01C501B4010E9417
S11304A023040E9406057093230160932201709334
S11304B021016093200182E00E949000BC01990F09
S11304C0880B990B0E943E050E946E019C012C5FD3
S11304D03F4F2930310528F410921F0110921E015C
S11304E015C08E3291052CF0D0931F01C0931E01CC
S11304F00DC0833D2FEF92072CF090931F01809342
S11305001E0104C010931F0100931E0160911E017F
S113051070911F01072E000C880B990B0E943E0559
S113052020E030E040E45FE30E94F3054B015C010E
S113053060911D01062E000C770B880B990B0E940D
S11305403E0520E030E040E85EE30E94F3059B01B5
S1130550AC01C501B4010E9423040E940605862F44
S1130560972F60931E0170931F0160931D010E94D9
S1130570BB0380912201909123018D599F4F873CA9
S1130580910538F40E94F3000E94F9000E940B01C7
S113059025C00E940E01809122019091230118161A
S11305A019065CF40E94F9000E94FF008091220168
S11305B0909123010E94B50011C099237CF40E94FC
S11305C0F3000E9405018091220190912301992357
S11305D01CF49195819591090E94D40060911E01AB
S11305E070911F01072E000C880B990B0E943E0589
S11305F02FE832EC45EB5EE30E94F30520E030E0A7
S11306004CE352E40E9423040E940D0567BD8FE36E
S11306109CE90197F1F700C0000016CF1F920F92DA
S11306200FB60F9211242F938F939F93AF93BF9381
S1130630EF93FF93E0911C018091CE00F0E0EC5D1C
S1130640FE4F8083E0911C01F0E0EC5DFE4F808161
S1130650843219F481E080931B0180911B0188236B
S113066011F1E0911C01F0E0EC5DFE4F80818C32D1
S1130670A9F480912701823561F4809128018D3499
S113068041F480912901833421F481E080931A019B
S113069002C010921C0110921B0105C080911C0124
S11306A08F5F80931C0180911A01882391F1E0915E
S11306B01C01F0E0EC5DFE4F80818A3229F5E7E30E
S11306C0F1E080E090E02191DC01AC59BE4F2C9325
S11306D0019687309105B9F78AE080936B01E5E4D0
S11306E0F1E080E090E02191DC01A359BE4F2C930E
S11306F0019687309105B9F78AE0809374011092CE
S11307001A0110921C0105C080911C018F5F809317
S11307101C01FF91EF91BF91AF919F918F912F9108
S11307200F900FBE0F901F9018950F931F93CF93A8
S1130730DF938C01FC0180818A3069F08B3379F47A
S11307400AC089918A3039F08B3329F00E94110450
S11307500C171D07B1F78AE00E94110407C00E941C
S11307601104E801219608531F4FEBCFDF91CF917D
S11307701F910F910895EF92FF920F931F93CF93C0
S1130780DF93CDB7DEB7C054D1090FB6F894DEBFFE
S11307900FBECDBF8C01009731F480E30E94110499
S11307A0E12CF12C16C020E030E0EAE0F0E001C0DA
S11307B09701BF010E946006CB0179014FEFE41A53
S11307C0F40A0097A9F7112324F4790182E0E80ED2
S11307D0F11C4AE0BE016F5F7F4FC8010E9488068A
S11307E01E141F046CF48E010F5F1F4FE00EF11EE8
S11307F0F80181918F010E9411040E151F05C1F7A4
S11308008AE00E941104C05CDF4F0FB6F894DEBF8B
S11308100FBECDBFDF91CF911F910F91FF90EF904D
S11308200895E0ECF0E0908195FFFDCF8093C60041
S1130830089598E99093C10096E09093C200809344
S1130840C40008955058BB27AA270E943A040C9468
S1130850B4050E94A60538F00E94AD0520F039F4D5
S11308609F3F19F426F40C94A3050EF4E095E7FBDE
S11308700C949D05E92F0E94C50558F3BA17620729
S113088073078407950720F079F4A6F50C94E7051F
S11308900EF4E0950B2EBA2FA02D0B01B901900197
S11308A00C01CA01A0011124FF27591B99F0593FDB
S11308B050F4503E68F11A16F040A22F232F342F23
S11308C04427585FF3CF469537952795A795F04071
S11308D05395C9F77EF41F16BA0B620B730B840B86
S11308E0BAF09150A1F0FF0FBB1F661F771F881F3E
S11308F0C2F70EC0BA0F621F731F841F48F4879596
S113090077956795B795F7959E3F08F0B0CF939587
S1130910880F08F09927EE0F9795879508950E9400
S1130920790508F481E008950E94A8040C94B405A4
S11309300E94AD0558F00E94A60540F029F45F3FDF
S113094029F00C949D0551110C94E8050C94A30511
S11309500E94C50568F39923B1F3552391F3951BC0
S1130960550BBB27AA2762177307840738F09F5FCC
S11309705F4F220F331F441FAA1FA9F335D00E2E39
S11309803AF0E0E832D091505040E695001CCAF7A6
S11309902BD0FE2F29D0660F771F881FBB1F261769
S11309A037074807AB07B0E809F0BB0B802DBF0140
S11309B0FF2793585F4F3AF09E3F510578F00C940F
S11309C09D050C94E8055F3FE4F3983ED4F38695C7
S11309D077956795B795F7959F5FC9F7880F911D30
S11309E09695879597F90895E1E0660F771F881F1C
S11309F0BB1F621773078407BA0720F0621B730BCF
S1130A00840BBA0BEE1F88F7E09508950E940D053C
S1130A106894B1110C94E80508950E94CD0588F0FE
S1130A209F5798F0B92F9927B751B0F0E1F0660FAE
S1130A30771F881F991F1AF0BA95C9F714C0B130EF
S1130A4091F00E94E705B1E008950C94E705672F43
S1130A50782F8827B85F39F0B93FCCF3869577951E
S1130A606795B395D9F73EF4909580957095619507
S1130A707F4F8F4F9F4F0895E89409C097FB3EF432
S1130A8090958095709561957F4F8F4F9F4F9923D7
S1130A90A9F0F92F96E9BB279395F6958795779555
S1130AA06795B795F111F8CFFAF4BB0F11F460FF15
S1130AB01BC06F5F7F4F8F4F9F4F16C0882311F06D
S1130AC096E911C0772321F09EE8872F762F05C081
S1130AD0662371F096E8862F70E060E02AF09A951C
S1130AE0660F771F881FDAF7880F9695879597F911
S1130AF00895990F0008550FAA0BE0E8FEEF1616AB
S1130B001706E807F907C0F012161306E407F507FD
S1130B1098F0621B730B840B950B39F40A2661F071
S1130B20232B242B252B21F408950A2609F4A14014
S1130B30A6958FEF811D811D089597F99F6780E821
S1130B4070E060E008959FEF80EC089500240A941B
S1130B501616170618060906089500240A94121694
S1130B601306140605060895092E0394000C11F4C7
S1130B70882352F0BB0F40F4BF2B11F460FF04C074
S1130B806F5F7F4F8F4F9F4F089557FD9058440FCD
S1130B90551F59F05F3F71F04795880F97FB991FD8
S1130BA061F09F3F79F08795089512161306140695
S1130BB0551FF2CF4695F1DF08C016161706180622
S1130BC0991FF1CF86957105610508940895E894FD
S1130BD0BB2766277727CB0197F908950E947905EB
S1130BE008F48FEF08950E9406060C94B4050E9441
S1130BF0A60538F00E94AD0520F0952311F00C9461
S1130C009D050C94A30511240C94E8050E94C505C8
S1130C1070F3959FC1F3950F50E0551F629FF0014B
S1130C20729FBB27F00DB11D639FAA27F00DB11D64
S1130C30AA1F649F6627B00DA11D661F829F2227ED
S1130C40B00DA11D621F739FB00DA11D621F839F74
S1130C50A00D611D221F749F3327A00D611D231F4A
S1130C60849F600D211D822F762F6A2F11249F5798
S1130C7050409AF0F1F088234AF0EE0FFF1FBB1F9B
S1130C80661F771F881F91505040A9F79E3F51055A
S1130C9080F00C949D050C94E8055F3FE4F3983EC6
S1130CA0D4F3869577956795B795F795E7959F5F04
S1130CB0C1F7FE2B880F911D9695879597F9089596
S1130CC097FB072E16F4009407D077FD09D00E94F5
S1130CD0740607FC05D03EF4909581959F4F0895C6
S1130CE0709561957F4F0895AA1BBB1B51E107C006
S1130CF0AA1FBB1FA617B70710F0A61BB70B881FA8
S1130D00991F5A95A9F780959095BC01CD01089536
S1130D10BB274A3031F4992322F4BDE290958195A2
S1130D209F4F0C949406BB27FB015527AA27880FD5
S1130D30991FAA1FA41710F0A41B83955051B9F74B
S1130D40A05DAA3308F0A95DA193009779F7B111CA
S1130D50B1931192CB010C94AD06DC01FC01672F19
S1130D6071917723E1F7329704C07C916D9370837E
S1110D706291AE17BF07C8F30895F894FFCF41
S1130D7E6E524632344C303120696E697469616C3E
S10D0D8E697A65642E2E2E3B0000E6
S9030000FC
