:100000000C9466000C9483000C9483000C94830081
:100010000C9483000C9483000C9483000C94830054
:100020000C9483000C9483000C9483000C94830044
:100030000C9483000C9440010C9483000C94830076
:100040000C9483000C9483000C9483000C94830024
:100050000C9483000C9483000C9483000C94830014
:100060000C9483000C9483000C9483000C94830004
:100070000C9483000C9483000C9483000C948300F4
:100080000C9483000C9483000C9483000C948300E4
:100090000C9483000C9483000C9483000C948300D4
:1000A0000C9483000C9483000C9483000C948300C4
:1000B0000C9483000C9483000C9483000C948300B4
:1000C0000C9483000C9483000C94830011241FBEB5
:1000D000CFEFD8E0DEBFCDBF11E0A0E0B1E0E6EDAC
:1000E000F4E002C005900D92A232B107D9F721E0E9
:1000F000A2E2B1E001C01D92A732B207E1F70E946F
:10010000CB000C9469020C9400006C9A259A3C9ADE
:100110000895009769F020E030E0EFE9FFE03197C3
:10012000F1F700C000002F5F3F4F82179307A9F738
:100130000895FF920F931F93CF93DF93882379F055
:100140008B01D82FC0E06894FF24F5F895B19F2566
:1001500095B9C8010E948900CF5FDC13F7CFDF910A
:10016000CF911F910F91FF900895E0E8F0E080811A
:10017000806C8083E1E8F0E080818D60808384E89A
:100180009EE19093890080938800EFE6F0E0808103
:100190008260808308950E94850089E10E94600248
:1001A0000E9428020E944F010E94860183E091E094
:1001B0000E94CE010E94B500789462E370E08AE06C
:1001C0000E9499008BE091E00E9402028FE39CE97B
:1001D0000197F1F700C00000749810E2C8E0D1E088
:1001E00000E185B1812785B98091010190910201DB
:1001F0009C0129513C4F2F3C374028F020910001B1
:1002000021952093000120910001820F911D27FD6F
:100210009A9590930201809301018883998363E00A
:10022000CE010E94DE01809123019091240101966C
:10023000909324018093230111C00E9463018823BD
:1002400069F08091250190912601019690932601F5
:10025000809325018EB180278EB904C00E9456017B
:10026000882359F380912201882319F010922201EA
:1002700074988FE39CE90197F1F700C00000B1CFBB
:100280001F920F920FB60F9211248F9381E08093EB
:1002900022018F910F900FBE0F901F9018953F9ADB
:1002A000569A47985E9A0E94280208955E988FEFAA
:1002B0000E9437025E9AEFE9FFE03197F1F700C044
:1002C0000000807208955E988FEF0E9437025E9A58
:1002D000EFE9FFE03197F1F700C0000082958170EF
:1002E0000895CF93C62F5E988F7180620E942F026F
:1002F00085E88A95F1F700008C2F0E942F025E9A04
:1003000085E88A95F1F70000CF9108956CE685E0C5
:100310000E94710163E081E10E94710160E082E16D
:100320000E94710160E083E10E94710160E084E15C
:100330000E94710160E085E10E94710160E086E148
:100340000E94710166E086E00E94710161E081E037
:100350000E94710161E082E00E9471016FEF84E010
:100360000E94710160E787E00E94710108951F9368
:10037000CF93DF93EB01142F5E988F7180620E9400
:100380002F02612FCE010E9441025E9A85E88A9574
:10039000F1F70000DF91CF911F910895CF93DF9384
:1003A000EC0145E0BC018AE00E94B70145E0BE01D6
:1003B00080E10E94B701DF91CF9108951F93CF9301
:1003C000DF93EC01162F47986AE580E00E947101E7
:1003D00085E88A95F1F7000060E787E00E947101E7
:1003E0005E9880EA0E942F02612FCE010E94410296
:1003F0005E9A479A80E58A95F1F74798DF91CF9109
:100400001F9108950F931F93CF93DF938C01FC01ED
:1004100080818A3069F08B3379F40AC089918A30FF
:1004200039F08B3329F00E9458020C171D07B1F7E1
:100430008AE00E94580207C00E945802E8012196F3
:1004400008531F4FEBCFDF91CF911F910F9108956C
:100450006B9A579A569A82E58093AC0008958093E0
:10046000AE00EDEAF0E080818823ECF708958093F8
:10047000AE00EDEAF0E080818823ECF78091AE00D9
:100480000895CF93DF93662381F0DC019C01260F52
:10049000311DCEEAD0E0EDEAF0E09D9198839081A5
:1004A0009923ECF7A217B307C1F7DF91CF91089515
:1004B000E0ECF0E0908195FFFDCF8093C6000895B9
:1004C00098E99093C10096E09093C2008093C40095
:0604D0000895F894FFCF2F
:1004D60001E803D7D7D7D7D70000025379737465DD
:1004E6006D20696E697469616C697A65642E2E2E59
:0204F6003B00C9
:00000001FF
