S01C00006E524632344C30315F41746D65676133323450422E7372656316
S11300000C9493000C94B0000C94B0000C94B000C9
S11300100C94B0000C94B0000C94B0000C94B0009C
S11300200C94B0000C94B0000C94B0000C94B0008C
S11300300C94B0000C94B0000C94B0000C94B0007C
S11300400C94B0000C94B0000C94B0000C94B0006C
S11300500C94B0000C94B0000C94B0000C94B0005C
S11300600C94B0000C94B0000C94B0000C94B0004C
S11300700C94B0000C94B0000C94B0000C94B0003C
S11300800C9455030C94B0000C94B0000C94B00084
S11300900C94B0000C94B0000C94B0000C94B0001C
S11300A00C94B0000C94B0000C94B0000C94B0000C
S11300B00C94B0000C94B0000C94B0000C94B000FC
S11300C00C94B0000C94B0000C94B0000800000034
S11300D0BE922449123EABAAAA2ABECDCCCC4C3E39
S11300E000000080BEABAAAAAA3E00000000BF0028
S11300F00000803F0000000000084178D3BB438724
S1130100D1133D190E3CC3BD4282AD2B3E68EC8237
S113011076BED98FE1A93E4C80EFFFBE01C4FF7FBC
S11301203F000000000011241FBECFEFD8E0DEBF67
S1130130CDBF11E0A0E0B1E0E6EEFFE002C0059023
S11301400D92AC31B107D9F721E0ACE1B1E001C0C7
S11301501D92AF32B207E1F70E94B4020C94F1078A
S11301600C940000ECE7F0E0808180648083EAE78F
S1130170F0E08081876880830895ECE7F0E0908167
S1130180987F8770892B8083EAE7F0E08081806420
S11301908083808184FFFDCF209178008091790055
S11301A090E0982F882788279F72822B0895DF92EA
S11301B0EF92FF920F931F93CF93DF93E62EF12CD0
S11301C01E141F04ACF4D82EC0E0D0E000E010E010
S11301D08D2D0E94BD00080F191F8FE99FE0019724
S11301E0F1F700C000002196CE15DF0589F702C0A3
S11301F000E010E0C801B7010E949407CB01DF9131
S1130200CF911F910F91FF90EF90DF9008956C9A1A
S1130210259A3C9A559A549A219A229A08950097BD
S113022069F020E030E0EFE9FFE03197F1F700C03A
S113023000002F5F3F4F82179307A9F70895FF929D
S11302400F931F93CF93DF93882379F08B01D82FDB
S1130250C0E06894FF24F5F895B19F2595B9C801CD
S11302600E940F01CF5FDC13F7CFDF91CF911F9175
S11302700F91FF900895E0E8F0E080818160808331
S1130280E1E8F0E08081896080830895BC01990FE2
S1130290880B990B0E94F2052FE632E143E85EE3F6
S11302A00E94F20620E030E040E85FE30E94D604BA
S11302B00E94BA05693C710514F068EC70E0772778
S11302C070938900609388000895BC01990F880B8E
S11302D0990B0E94F2052FE632E143E85EE30E94A7
S11302E0F20620E030E040E85FE30E94D6040E947A
S11302F0BA05693C710514F068EC70E077277093D7
S11303008B0060938A000895E0E8F0E080818F77A5
S113031080830895E0E8F0E080818F7D80830895F4
S1130320E0E8F0E08081806880830895E0E8F0E010
S1130330808180628083089529982A980895299A53
S11303402A9A089580912A0190912B01892B39F4DE
S11303500E9484010E948A010E949C0108950E94C7
S11303609F0180912A0190912B0118161906C4F45B
S113037080912A0190912B018F3E924034F08EEEB1
S113038092E090932B0180932A010E948A010E949B
S1130390900180912A0190912B010E9446010895B9
S11303A080912A0190912B019923E4F480912A01F0
S11303B090912B0182319D4F34F482E19DEF909313
S11303C02B0180932A010E9484010E94960180914E
S11303D02A0190912B0199231CF4919581959109FF
S11303E00E9465010895E0E9F0E08081806C8083DB
S11303F0E1E9F0E080818D60808384E89EE1909360
S1130400990080939800E1E7F0E080818260808326
S11304100895E1E7F0E08081826080830895E1E758
S1130420F0E080818D7F8083089565E081E00E9403
S1130430D700BC01990F880B990B0E94F20520E0AC
S113044030E040EA50E40E94F20620E030EC4FE74E
S113045054E40E94480520E030E040E452E40E9465
S1130460F20620E030E040E251E40E94480508959D
S1130470CF92DF92EF92FF9265E080E00E94D70076
S1130480BC01990F880B990B0E94F20520E030E41F
S11304904CE955E40E94F20620E030EC4FE754E4C6
S11304A00E94480520E030E04EED53E40E94D6045B
S11304B020E030E048EC53E40E9448056B017C01E5
S11304C020E030E0A9010E94430588231CF4C12CDC
S11304D0D12C7601C701B601FF90EF90DF90CF9049
S11304E0089565E082E00E94D700BC01990F880B53
S11304F0990B0E94F2059B01AC0160E070EC8FE760
S113050094E40E94480520E030E040E85FE30E9464
S1130510D6049B01AC0160E070E48CE196E40E9497
S1130520480520E030E44CE156E40E9448050E946E
S1130530AA0620E030ED44E855E40E9448052FE087
S11305403FEC4BE55BE30E94D7049B01AC0160E008
S113055070E080E89FE30E94480523E333E948E81C
S113056053E40E94D60408950E94070189E10E9481
S1130570CD040E9471040E9464030E94910380E0F0
S113058091E00E94ED030E94F3010E94B2000E94D8
S11305903B01789462E370E08AE00E941F0185E0E9
S11305A091E00E94F5038FE39CE90197F1F700C005
S11305B000007498C0E2D1E085B18C2785B90E940F
S11305C0150220E030E048EC52E40E94F206609309
S11305D021017093220180932301909324010E94AE
S11305E0380220E030E04AE754E40E94F2066093C7
S11305F025017093260180932701909328010E947E
S1130600710260931D0170931E0180931F019093EA
S113061020010E9487030E94090209C080912901D8
S1130620882329F010922901D0931C0104C00E9450
S11306306B03882399F30E940F0247988CE291E0A0
S11306400E94C20380911C01811126C0ECE2F1E0FA
S1130650808190E090932B0180932A0180912A015C
S113066090912B012181922B90932B0180932A014D
S113067020912A0130912B01C901880F991F880FFD
S1130680991F880F991F821B930B90932B018093C2
S11306902A010E94A20102C010921C0180912A0129
S11306A090912B010E941B0487CF1F920F920FB6CB
S11306B00F9211248F9381E0809329018F910F90E1
S11306C00FBE0F901F9018953F9A569A47985E9ABE
S11306D00E94710408955E988FEF0E9480045E9AD0
S11306E080740895CF93C62F5E988F7180620E94A4
S11306F0780485E88A95F1F700008C2F0E9478042D
S11307005E9A85E88A95F1F70000CF91089560E735
S113071087E00E9472036BE580E00E947203479AAF
S113072008956CE685E00E94720363E081E10E9413
S1130730720360E082E10E94720360E083E10E9440
S1130740720360E084E10E94720360E085E10E942C
S1130750720360E086E10E94720366E086E00E9414
S1130760720361E081E00E94720361E082E00E9412
S113077072036FEF84E00E94720360E787E00E94D7
S113078072030895CF93DF93EC015E9881E60E9493
S1130790780443E0BE01CE010E94A1045E9A60E4A5
S11307A087E00E947203DF91CF9108951F93CF9346
S11307B0DF93EB01142F5E988F7180620E9478049E
S11307C0612FCE010E948A045E9A85E88A95F1F72A
S11307D00000DF91CF911F910895479845E0BC0137
S11307E08AE00E94D603479A08950F931F93CF93EC
S11307F0DF938C01FC0180818A3069F08B3379F4BA
S11308000AC089918A3039F08B3329F00E94C504DB
S11308100C171D07B1F78AE00E94C50407C00E94A7
S1130820C504E801219608531F4FEBCFDF91CF9108
S11308301F910F910895EF92FF920F931F93CF93FF
S1130840DF93CDB7DEB7C054D1090FB6F894DEBF3D
S11308500FBECDBF8C01009731F480E30E94C50424
S1130860E12CF12C16C020E030E0EAE0F0E001C019
S11308709701BF010E949407CB0179014FEFE41A5D
S1130880F40A0097A9F7112324F4790182E0E80E11
S1130890F11C4AE0BE016F5F7F4FC8010E94BC0794
S11308A01E141F046CF48E010F5F1F4FE00EF11E27
S11308B0F80181918F010E94C5040E151F05C1F72F
S11308C08AE00E94C504C05CDF4F0FB6F894DEBF17
S11308D00FBECDBFDF91CF911F910F91FF90EF908D
S11308E008956B9A579A569A82E58093AC000895BE
S11308F08093AE00EDEAF0E080818823ECF7089560
S11309008093AE00EDEAF0E080818823ECF78091DB
S1130910AE000895CF93DF93662381F0DC019C0140
S1130920260F311DCEEAD0E0EDEAF0E09D919883E8
S113093090819923ECF7A217B307C1F7DF91CF9108
S113094008950F931F93CF93DF934423C9F0DC01E1
S1130950062F172F9C01240F311DA9012EEA30E028
S1130960EDEAF0E09D91E901988390819923ECF7F9
S1130970E9019881E80199938E01A417B50791F7CD
S1130980DF91CF911F910F910895E0ECF0E09081F9
S113099095FFFDCF8093C600089598E99093C10018
S11309A096E09093C2008093C40008955058BB27EA
S11309B0AA270E94EE040C9468060E945A0638F096
S11309C00E94610620F039F49F3F19F426F40C9438
S11309D057060EF4E095E7FB0C945106E92F0E94AC
S11309E0790658F3BA17620773078407950720F04E
S11309F079F4A6F50C949B060EF4E0950B2EBA2F11
S1130A00A02D0B01B90190010C01CA01A001112410
S1130A10FF27591B99F0593F50F4503E68F11A16BC
S1130A20F040A22F232F342F4427585FF3CF46954D
S1130A3037952795A795F0405395C9F77EF41F166F
S1130A40BA0B620B730B840BBAF09150A1F0FF0F39
S1130A50BB1F661F771F881FC2F70EC0BA0F621F25
S1130A60731F841F48F4879577956795B795F79515
S1130A709E3F08F0B0CF9395880F08F09927EE0FAA
S1130A809795879508950E942D0608F481E00895AE
S1130A900E945C050C9468060E94610658F00E944E
S1130AA05A0640F029F45F3F29F00C945106511185
S1130AB00C949C060C9457060E94790668F39923BB
S1130AC0B1F3552391F3951B550BBB27AA27621746
S1130AD07307840738F09F5F5F4F220F331F441F53
S1130AE0AA1FA9F335D00E2E3AF0E0E832D0915087
S1130AF05040E695001CCAF72BD0FE2F29D0660F74
S1130B00771F881FBB1F261737074807AB07B0E8B6
S1130B1009F0BB0B802DBF01FF2793585F4F3AF0BC
S1130B209E3F510578F00C9451060C949C065F3F4F
S1130B30E4F3983ED4F3869577956795B795F79542
S1130B409F5FC9F7880F911D9695879597F908952A
S1130B50E1E0660F771F881FBB1F621773078407C6
S1130B60BA0720F0621B730B840BBA0BEE1F88F7D5
S1130B70E09508950E94C1056894B1110C949C06F7
S1130B8008950E94810688F09F5798F0B92F9927FD
S1130B90B751B0F0E1F0660F771F881F991F1AF064
S1130BA0BA95C9F714C0B13091F00E949B06B1E028
S1130BB008950C949B06672F782F8827B85F39F027
S1130BC0B93FCCF3869577956795B395D9F73EF4FD
S1130BD090958095709561957F4F8F4F9F4F0895A5
S1130BE0E89409C097FB3EF49095809570956195C3
S1130BF07F4F8F4F9F4F9923A9F0F92F96E9BB2779
S1130C009395F695879577956795B795F111F8CFF4
S1130C10FAF4BB0F11F460FF1BC06F5F7F4F8F4F5F
S1130C209F4F16C0882311F096E911C0772321F055
S1130C309EE8872F762F05C0662371F096E8862FED
S1130C4070E060E02AF09A95660F771F881FDAF744
S1130C50880F9695879597F90895990F0008550F71
S1130C60AA0BE0E8FEEF16161706E807F907C0F02E
S1130C7012161306E407F50798F0621B730B840B36
S1130C80950B39F40A2661F0232B242B252B21F410
S1130C9008950A2609F4A140A6958FEF811D811DB0
S1130CA0089597F99F6780E870E060E008959FEFEA
S1130CB080EC089500240A941616170618060906EF
S1130CC0089500240A9412161306140605060895BE
S1130CD0092E0394000C11F4882352F0BB0F40F446
S1130CE0BF2B11F460FF04C06F5F7F4F8F4F9F4F86
S1130CF0089557FD9058440F551F59F05F3F71F008
S1130D004795880F97FB991F61F09F3F79F087956E
S1130D100895121613061406551FF2CF4695F1DFF7
S1130D2008C0161617061806991FF1CF8695710587
S1130D30610508940895E894BB2766277727CB01BB
S1130D4097F9089516F00C945F070C94570668946D
S1130D500C9451060E948106A8F39923C1F3AEF3C3
S1130D60DF93CF931F930F93FF92C92FDD2788231F
S1130D702AF02197660F771F881FDAF720E030E00A
S1130D8040E85FEB9FE3883920F0803E38F02196FD
S1130D908F770E94D704ECECF0E004C00E94D704E3
S1130DA0E9EFF0E00E946D078B01BE01EC01FB2E20
S1130DB06F5771097595771F880B990B0E94F2057F
S1130DC028E132E741E35FE30E940507AF2D980174
S1130DD0AE01FF900F911F91CF91DF910E94EE041D
S1130DE00C9468060E9405070C9468060E945A0633
S1130DF038F00E94610620F0952311F00C945106FE
S1130E000C94570611240C949C060E94790670F3E6
S1130E10959FC1F3950F50E0551F629FF001729F9B
S1130E20BB27F00DB11D639FAA27F00DB11DAA1FAA
S1130E30649F6627B00DA11D661F829F2227B00DF7
S1130E40A11D621F739FB00DA11D621F839FA00D82
S1130E50611D221F749F3327A00D611D231F849FD2
S1130E60600D211D822F762F6A2F11249F57504029
S1130E709AF0F1F088234AF0EE0FFF1FBB1F661FA4
S1130E80771F881F91505040A9F79E3F510580F06D
S1130E900C9451060C949C065F3FE4F3983ED4F303
S1130EA0869577956795B795F795E7959F5FC1F711
S1130EB0FE2B880F911D9695879597F908959F3F6E
S1130EC031F0915020F4879577956795B795880F01
S1130ED0911D9695879597F90895DF93CF931F9366
S1130EE00F93FF92EF92DF927B018C01689406C00E
S1130EF0DA2EEF010E940507FE01E894A5912591E1
S1130F00359145915591A6F3EF010E94EE04FE013F
S1130F109701A801DA9469F7DF90EF90FF900F91A1
S1130F201F91CF91DF91089597FB072E16F400943B
S1130F3007D077FD09D00E94A80707FC05D03EF42E
S1130F40909581959F4F0895709561957F4F089571
S1130F50AA1BBB1B51E107C0AA1FBB1FA617B707DB
S1130F6010F0A61BB70B881F991F5A95A9F78095F7
S1130F709095BC01CD010895BB274A3031F49923E3
S1130F8022F4BDE2909581959F4F0C94C807BB272E
S1130F90FB015527AA27880F991FAA1FA41710F031
S1130FA0A41B83955051B9F7A05DAA3308F0A95D3D
S1130FB0A193009779F7B111B1931192CB010C94DD
S1130FC0E107DC01FC01672F71917723E1F7329788
S1130FD004C07C916D9370836291AE17BF07C8F310
S1090FE00895F894FFCF10
S1130FE6D7D7D7D7D753797374656D20696E69746B
S10F0FF669616C697A65642E2E2E3B0044
S9030000FC
