:100000000C9466000C94B0010C9483000C94830053
:100010000C9483000C9483000C9483000C94830054
:100020000C9483000C9483000C9483000C94830044
:100030000C9483000C9483000C9483000C94830034
:100040000C9483000C9483000C9483000C94830024
:100050000C9483000C9483000C9483000C94830014
:100060000C9483000C9483000C9483000C94830004
:100070000C9483000C9483000C9483000C948300F4
:100080000C9483000C9483000C9483000C948300E4
:100090000C9483000C9483000C9483000C948300D4
:1000A0000C9483000C9483000C9483000C948300C4
:1000B0000C9483000C9483000C9483000C948300B4
:1000C0000C9483000C9483000C94830011241FBEB5
:1000D000CFEFD8E0DEBFCDBF11E0A0E0B1E0E4E3B8
:1000E000F5E002C005900D92A836B107D9F721E0DE
:1000F000A8E6B1E001C01D92AB3AB207E1F70E9459
:1001000087000C9498020C940000209A08950E9495
:10011000850083E30E948F020E9433020E943C010B
:100120002FE738E381E0215030408040E1F700C004
:10013000000095B181E0982795B99FEF20E732E064
:10014000915020403040E1F700C0000095B1982761
:1001500095B99FEF20E732E0915020403040E1F721
:1001600000C0000095B1982795B99FEF20E732E0D5
:10017000915020403040E1F700C0000095B1982731
:1001800095B99FEF20E732E0915020403040E1F7F1
:1001900000C0000095B1982795B99FEF20E732E0A5
:1001A000915020403040E1F700C0000095B1982701
:1001B00095B99FEF20E732E0915020403040E1F7C1
:1001C00000C0000095B1982795B99FEF20E732E075
:1001D000915020403040E1F700C0000095B18927E0
:1001E00085B978940E94640180E091E00E940D023C
:1001F0008FEC97E00197F1F700C0000089E191E0F2
:100200000E940D028FEC97E00197F1F700C000000B
:1002100060E18AE991E00E94880182E391E00E9416
:100220000D020E944A018823E1F38AE991E00E94CD
:10023000740187E491E00E94EA01CAE9D1E0888173
:100240000E94E7018CE20E94E70180E20E94E70140
:1002500089810E94E7018AE00E94E70191E085B16F
:10026000892785B92FEF34E38CE02150304080405E
:10027000E1F700C00000F3CF549A569A5C985E9A5A
:10028000E898E9E6F0E0808182608083E89A0E9445
:10029000330208958091AA01811107C05E988FEF03
:1002A0000E9442025E9A8074089580E00895CF9380
:1002B000C62F5E988F7180620E943A028C2F0E9436
:1002C0003A025E9ACF91089562E085E00E9457015C
:1002D00060E181E10E9457011092AA016BE480E085
:1002E0000E9457015C9A0895CF93DF93EC015E98CA
:1002F00081E60E943A0240E1BE01CE010E94630203
:100300005E9A60E487E00E945701DF91CF910895E3
:100310001F93CF93DF93EC01162F88E591E00E94A5
:100320000D028091AA018111FCCF5C9881E080933D
:10033000AA016AE480E00E9457015E9881EE0E9463
:100340003A025E9A5E9880EA0E943A02612FCE01DC
:100350000E944C025E9A5C9ADF91CF911F910895A2
:100360001F920F920FB60F9211242F933F934F932A
:100370005F936F937F938F939F93AF93BF93EF930D
:10038000FF938091AA01882389F05E988FEF0E94E5
:1003900042025E9A5C986BE480E00E9457015C9A8E
:1003A0001092AA0160E387E00E945701FF91EF914C
:1003B000BF91AF919F918F917F916F915F914F917D
:1003C0003F912F910F900FBE0F901F9018950E9494
:1003D000870208950F931F93CF93DF93FC018081D1
:1003E0008A30B1F08B3361F413C089918A3081F087
:1003F0008B3371F00E9487020C171D07B1F708C0FC
:100400008F010E948702E801219608531F4FEDCF0C
:10041000DF91CF911F910F9108950F931F93CF9369
:10042000DF938C01FC0180818A3069F08B3379F491
:100430000AC089918A3039F08B3329F00E948702F3
:100440000C171D07B1F78AE00E94870207C00E94BF
:100450008702E801219608531F4FEBCFDF91CF9120
:100460001F910F9108956B9A579A569A86E580933B
:10047000AC0008958093AE00EDEAF0E0808188231F
:10048000ECF708958093AE00EDEAF0E080818823D8
:10049000ECF78091AE000895CF93DF93662381F04F
:1004A000DC019C01260F311DCEEAD0E0EDEAF0E040
:1004B0009D91988390819923ECF7A217B307C1F718
:1004C000DF91CF9108950F931F93CF93DF93442330
:1004D000C9F0DC01062F172F9C01240F311DA90143
:1004E0002EEA30E0EDEAF0E09D91E90198839081F9
:1004F0009923ECF7E9019881E80199938E01A417FB
:10050000B50791F7DF91CF911F910F910895E0EC1E
:10051000F0E0908195FFFDCF8093C600089598E9A3
:100520009093C10096E09093C2008093C400089518
:04053000F894FFCF6D
:100534006E524632344C303120696E697469616C94
:10054400697A65642E2E2E3B0054657374696E6758
:1005540020636F6D756E69636174696F6E2E2E2EE4
:100564003B0057616974696E6720666F722065632A
:10057400686F2E2E2E3B004563686F20726563659D
:10058400697665643A203B00496E206D6972665F46
:0805940073656E6428293B0029
:00000001FF
