:100000000C9466000C9483000C9483000C94830081
:100010000C9483000C9483000C9483000C94830054
:100020000C9483000C9483000C9483000C94830044
:100030000C9483000C9483000C9483000C94830034
:100040000C9483000C9483000C9483000C94830024
:100050000C9483000C9483000C9483000C94830014
:100060000C9483000C9483000C9483000C94830004
:100070000C9483000C9483000C9483000C948300F4
:100080000C9483000C9483000C9483000C948300E4
:100090000C9483000C9483000C9483000C948300D4
:1000A0000C9483000C9483000C9483000C948300C4
:1000B0000C9483000C9483000C9483000C948300B4
:1000C0000C9483000C9483000C94830011241FBEB5
:1000D000CFEFD8E0DEBFCDBF11E0A0E0B1E0E8E8AF
:1000E000F5E002C005900D92A630B107D9F721E0E6
:1000F000A6E0B1E001C01D92AB30B207E1F70E946B
:10010000B4000C94C2020C9400006C9A3C9A0895BE
:10011000009769F020E030E0EFECF7E03197F1F77D
:1001200000C000002F5F3F4F82179307A9F7089583
:10013000FF920F931F93CF93DF93882379F08B0166
:10014000D82FC0E06894FF24F4F89EB19F259EB993
:10015000C8010E948800CF5FDC13F7CFDF91CF91F9
:100160001F910F91FF9008950E9485008CE00E94DE
:100170005C020E9424020E941B010E94520180E046
:1001800091E00E949A01E8E0F1E08AE0808384E156
:1001900081838EE18283789462E370E08AE00E943A
:1001A00098002FEF39E688E1215030408040E1F798
:1001B00000C000006894DD24D4F8C8E0D1E0EC2E43
:1001C000FD2E04E610E08EB18D258EB988818F5FFB
:1001D000888389818F5F89838A818F5F8A8363E0C7
:1001E0008E2D9F2D0E94AA01809106018F5F809322
:1001F00006010AC00E942F01882331F08091070177
:100200008F5F8093070104C00E942201882391F32D
:10021000809106018436B9F6809107019801281B68
:100220003109C9010E94D10185E20E94CE018AE014
:100230000E94CE01C8CF3F9A569A47985E9A0E9474
:10024000240208955E988FEF0E9433025E9AEFECCD
:10025000F7E03197F1F700C00000807208955E98D2
:100260008FEF0E9433025E9AEFECF7E03197F1F7DF
:1002700000C00000829581700895CF93C62F5E98CC
:100280008F7180620E942B0282E48A95F1F700C090
:100290008C2F0E942B025E9A82E48A95F1F700C0AF
:1002A000CF9108956CE685E00E943D0163E081E115
:1002B0000E943D0160E082E10E943D0160E083E137
:1002C0000E943D0160E084E10E943D0160E085E123
:1002D0000E943D0160E086E10E943D0166E086E00B
:1002E0000E943D0161E081E00E943D0161E082E009
:1002F0000E943D016FEF84E00E943D0160E787E0CE
:100300000E943D0108951F93CF93DF93EB01142FBB
:100310005E988F7180620E942B02612FCE010E9435
:100320003D025E9A82E48A95F1F700C0DF91CF9199
:100330001F910895CF93DF93EC0145E0BC018AE063
:100340000E94830145E0BE0180E10E948301DF91AC
:10035000CF9108951F93CF93DF93EC01162F479809
:100360006AE580E00E943D0182E48A95F1F700C0D1
:1003700060E787E00E943D015E9880EA0E942B02C0
:10038000612FCE010E943D025E9A479A88E28A95CB
:10039000F1F74798DF91CF911F9108950E94540281
:1003A0000895EF92FF920F931F93CF93DF93CDB7F2
:1003B000DEB7C054D1090FB6F894DEBF0FBECDBF73
:1003C0008C01009731F480E30E945402E12CF12C5F
:1003D00016C020E030E0EAE0F0E001C09701BF0184
:1003E0000E946502CB0179014FEFE41AF40A0097ED
:1003F000A9F7112324F4790182E0E80EF11C4AE008
:10040000BE016F5F7F4FC8010E948D021E141F0442
:100410006CF48E010F5F1F4FE00EF11EF801819109
:100420008F010E9454020E151F05C1F7C05CDF4FFB
:100430000FB6F894DEBF0FBECDBFDF91CF911F91F5
:100440000F91FF90EF9008956B9A579A569A82E514
:100450008093AC0008958093AE00EDEAF0E08081D7
:100460008823ECF708958093AE00EDEAF0E08081F8
:100470008823ECF78091AE000895CF93DF93662335
:1004800081F0DC019C01260F311DCEEAD0E0EDEABF
:10049000F0E09D91988390819923ECF7A217B30720
:1004A000C1F7DF91CF910895E0ECF0E0908195FFE6
:1004B000FDCF8093C600089598E99093C10096E01F
:1004C0009093C2008093C400089597FB072E16F402
:1004D000009407D077FD09D00E94790207FC05D06F
:1004E0003EF4909581959F4F0895709561957F4F4B
:1004F0000895AA1BBB1B51E107C0AA1FBB1FA6176B
:10050000B70710F0A61BB70B881F991F5A95A9F7BC
:1005100080959095BC01CD010895BB274A3031F4F8
:10052000992322F4BDE2909581959F4F0C949902F6
:10053000BB27FB015527AA27880F991FAA1FA417BD
:1005400010F0A41B83955051B9F7A05DAA3308F0B1
:10055000A95DA193009779F7B111B1931192CB01E5
:100560000C94B202DC01FC01672F71917723E1F753
:10057000329704C07C916D9370836291AE17BF0770
:08058000C8F30895F894FFCFC1
:06058800D7D7D7D7D7003A
:00000001FF
