:100000000C9466000C94AB010C9483000C94830058
:100010000C9483000C9483000C9483000C94830054
:100020000C9483000C9483000C9483000C94830044
:100030000C9483000C9483000C9483000C94830034
:100040000C9483000C9483000C9483000C94830024
:100050000C9483000C9483000C9483000C94830014
:100060000C9483000C9483000C9483000C94830004
:100070000C9483000C9483000C9483000C948300F4
:100080000C9483000C9483000C9483000C948300E4
:100090000C9483000C9483000C9483000C948300D4
:1000A0000C9483000C9483000C9483000C948300C4
:1000B0000C9483000C9483000C9483000C948300B4
:1000C0000C9483000C9483000C94830011241FBEB5
:1000D000CFEFD8E0DEBFCDBF11E0A0E0B1E0EEEAA7
:1000E000F9E002C005900D92AE32B107D9F721E0D8
:1000F000AEE2B1E001C01D92A133B207E1F70E9468
:10010000AA000C94D5040C940000209A089584B59C
:10011000836884BD85B5816085BD0895BC01990F54
:10012000880B990B0E947F032AE037ED43E250E4ED
:100130000E940B0420E030E040E85FE30E94DA0216
:100140000E94470367BD0895299A2A980895599AED
:10015000429A08950E94850080E00E94D1020E9488
:100160008C020E9487000E9453012FE738E381E050
:10017000215030408040E1F700C0000095B181E09F
:10018000982795B99FEF20E732E09150204030400A
:10019000E1F700C0000095B1982795B99FEF20E7DF
:1001A00032E0915020403040E1F700C0000095B1AE
:1001B000982795B99FEF20E732E0915020403040DA
:1001C000E1F700C0000095B1982795B99FEF20E7AF
:1001D00032E0915020403040E1F700C0000095B17E
:1001E000982795B99FEF20E732E0915020403040AA
:1001F000E1F700C0000095B1982795B99FEF20E77F
:1002000032E0915020403040E1F700C0000095B14D
:10021000982795B99FEF20E732E091502040304079
:10022000E1F700C0000095B1892785B98FEF99E605
:1002300028E1815090402040E1F700C00000789410
:100240000E94830180E091E00E9410028FE19EE411
:100250000197F1F700C0000011E085B1812785B951
:1002600004C060E187E00E946E010E946101882362
:10027000C1F38EE291E00E949701CEE2D1E0888145
:1002800090E00E948E0088819FEF980F943618F0BE
:100290000E94A700E2CF882301F390E00E948E0025
:1002A0000E94A400DACF549A569A5C985E9AE89815
:1002B000E9E6F0E0808182608083E89A0E948C0207
:1002C000089580913001811107C05E988FEF0E94E0
:1002D0009B025E9A8074089580E00895CF93C62FA4
:1002E0005E988F7180620E94930282E48A95F1F792
:1002F00000C08C2F0E9493025E9A82E48A95F1F7E7
:1003000000C0CF91089562E085E00E946E0160E038
:1003100083E00E946E0162E081E10E946E01109212
:1003200030016BE480E00E946E015C9A0895CF93E7
:10033000DF93EC015E9881E60E94930242E0BE01E9
:10034000CE010E94A5025E9A60E487E00E946E01E1
:10035000DF91CF9108951F920F920FB60F92112443
:100360002F933F934F935F936F937F938F939F93BD
:10037000AF93BF93CF93EF93FF9380913001882386
:10038000D1F05E988FEF0E949B02C82F84E291E02B
:100390000E94ED018C2F90E00E9436025E9A82E46A
:1003A0008A95F1F700C05C986BE480E00E946E01D2
:1003B0005C9A10923001FF91EF91CF91BF91AF9174
:1003C0009F918F917F916F915F914F913F912F916D
:1003D0000F900FBE0F901F9018950F931F93CF9300
:1003E000DF93FC0180818A30B1F08B3361F413C05C
:1003F00089918A3081F08B3371F00E94C9020C1709
:100400001D07B1F708C08F010E94C902E8012196BB
:1004100008531F4FEDCFDF91CF911F910F9108959A
:100420000F931F93CF93DF938C01FC0180818A305F
:1004300069F08B3379F40AC089918A3039F08B33B3
:1004400029F00E94C9020C171D07B1F78AE00E942B
:10045000C90207C00E94C902E801219608531F4F34
:10046000EBCFDF91CF911F910F910895EF92FF9203
:100470000F931F93CF93DF93CDB7DEB7E2970FB6FD
:10048000F894DEBF0FBECDBF8C01009789F120E04C
:1004900030E0EAE0F0E001C09701BF010E9478047B
:1004A000CB0179014FEFE41AF40A0097A9F7112361
:1004B00024F4790182E0E80EF11C4AE0BE016F5F8E
:1004C0007F4FC8010E94A0041E141F046CF48E010B
:1004D0000F5F1F4FE00EF11EF80181918F010E9406
:1004E000C9020E151F05C1F78AE00E94C90207C0A4
:1004F0004AE0BE016F5F7F4F0E94A004F5CFE296F5
:100500000FB6F894DEBF0FBECDBFDF91CF911F9124
:100510000F91FF90EF9008956B9A579A569A82E543
:100520008093AC0008958093AE00EDEAF0E0808106
:100530008823ECF708958093AE00EDEAF0E0808127
:100540008823ECF78091AE0008950F931F93CF930B
:10055000DF934423C9F0DC01062F172F9C01240FE1
:10056000311DA9012EEA30E0EDEAF0E09D91E901AC
:10057000988390819923ECF7E9019881E801999398
:100580008E01A417B50791F7DF91CF911F910F91BD
:100590000895E0ECF0E0908195FFFDCF8093C600D8
:1005A000089598E99093C10096E09093C2008093DB
:1005B000C40008955058BB27AA270E94F2020C9449
:1005C000D1030E94C30338F00E94CA0320F039F41B
:1005D0009F3F19F426F40C94C0030EF4E095E7FB5A
:1005E0000C94BA03E92F0E94E20358F3BA1762078A
:1005F00073078407950720F079F4A6F50C9404049A
:100600000EF4E0950B2EBA2FA02D0B01B90190012D
:100610000C01CA01A0011124FF27591B99F0593F71
:1006200050F4503E68F11A16F040A22F232F342FB9
:100630004427585FF3CF469537952795A795F04007
:100640005395C9F77EF41F16BA0B620B730B840B1C
:10065000BAF09150A1F0FF0FBB1F661F771F881FD4
:10066000C2F70EC0BA0F621F731F841F48F487952C
:1006700077956795B795F7959E3F08F0B0CF93951E
:10068000880F08F09927EE0F9795879508950E9497
:100690004E036894B1110C94050408950E94EA0376
:1006A00088F09F5798F0B92F9927B751B0F0E1F033
:1006B000660F771F881F991F1AF0BA95C9F714C0E3
:1006C000B13091F00E940404B1E008950C94040448
:1006D000672F782F8827B85F39F0B93FCCF386951C
:1006E00077956795B395D9F73EF490958095709579
:1006F00061957F4F8F4F9F4F0895E89409C097FBF6
:100700003EF490958095709561957F4F8F4F9F4FE8
:100710009923A9F0F92F96E9BB279395F69587952C
:1007200077956795B795F111F8CFFAF4BB0F11F4EF
:1007300060FF1BC06F5F7F4F8F4F9F4F16C0882396
:1007400011F096E911C0772321F09EE8872F762FCC
:1007500005C0662371F096E8862F70E060E02AF00D
:100760009A95660F771F881FDAF7880F96958795F9
:1007700097F9089597F99F6780E870E060E0089521
:100780009FEF80EC089500240A94161617061806A9
:100790000906089500240A94121613061406050685
:1007A0000895092E0394000C11F4882352F0BB0F16
:1007B00040F4BF2B11F460FF04C06F5F7F4F8F4F79
:1007C0009F4F089557FD9058440F551F59F05F3FB4
:1007D00071F04795880F97FB991F61F09F3F79F063
:1007E00087950895121613061406551FF2CF4695E5
:1007F000F1DF08C0161617061806991FF1CF869567
:100800007105610508940895E894BB27662777274A
:10081000CB0197F908950E941E040C94D1030E9405
:10082000C30338F00E94CA0320F0952311F00C9402
:10083000BA030C94C00311240C9405040E94E20333
:1008400070F3959FC1F3950F50E0551F629FF00123
:10085000729FBB27F00DB11D639FAA27F00DB11D3C
:10086000AA1F649F6627B00DA11D661F829F2227C5
:10087000B00DA11D621F739FB00DA11D621F839F4C
:10088000A00D611D221F749F3327A00D611D231F22
:10089000849F600D211D822F762F6A2F11249F5770
:1008A00050409AF0F1F088234AF0EE0FFF1FBB1F73
:1008B000661F771F881F91505040A9F79E3F510532
:1008C00080F00C94BA030C9405045F3FE4F3983E67
:1008D000D4F3869577956795B795F795E7959F5FDC
:1008E000C1F7FE2B880F911D9695879597F908956E
:1008F00097FB072E16F4009407D077FD09D00E94CD
:100900008C0407FC05D03EF4909581959F4F089587
:10091000709561957F4F0895AA1BBB1B51E107C0DD
:10092000AA1FBB1FA617B70710F0A61BB70B881F7F
:10093000991F5A95A9F780959095BC01CD0108950E
:10094000BB274A3031F4992322F4BDE2909581957A
:100950009F4F0C94AC04BB27FB015527AA27880F97
:10096000991FAA1FA41710F0A41B83955051B9F723
:10097000A05DAA3308F0A95DA193009779F7B111A2
:10098000B1931192CB010C94C504DC01FC01672FDB
:1009900071917723E1F7329704C07C916D93708356
:0E09A0006291AE17BF07C8F30895F894FFCF19
:1009AE006E524632344C303120696E697469616C16
:1009BE00697A65642E2E2E3B007768696C65285027
:0E09CE00545829005354415455533A203B00CD
:00000001FF
