:100000000C9466000C9459020C9483000C948300A9
:100010000C9483000C9483000C9483000C94830054
:100020000C9483000C9483000C9483000C94830044
:100030000C9483000C9483000C9483000C94830034
:100040000C9483000C9483000C9483000C94830024
:100050000C9483000C9483000C9483000C94830014
:100060000C9483000C9483000C9483000C94830004
:100070000C9483000C9483000C9483000C948300F4
:100080000C9483000C9483000C9483000C948300E4
:100090000C9483000C9483000C9483000C948300D4
:1000A0000C9483000C9483000C9483000C948300C4
:1000B0000C9483000C9483000C9483000C948300B4
:1000C0000C9483000C9483000C94830011241FBEB5
:1000D000CFEFD8E0DEBFCDBF11E0A0E0B1E0E2E1BC
:1000E000FBE002C005900D92A034B107D9F721E0E2
:1000F000A0E4B1E001C01D92A334B207E1F70E9471
:10010000D5000C9487050C9400006C9A219A229AD1
:10011000559A239A0895E0E8F0E08081816C80830D
:10012000E1E8F0E0808189608083089584B5836888
:1001300084BD85B5846085BD8FE287BD0895BC010F
:10014000990F880B990B0E9431042AE037ED43E2A6
:1001500050E40E94BD0420E030E040E85FE30E94EC
:100160008C030E94F9036F3F710519F014F06FEFD3
:1001700070E0772770938900609388000895299A2A
:100180002A98089529982A9A08952FE832EC45EB89
:100190005EE30E94BD0420E030E04CE352E40E94A4
:1001A0008D030E94000467BD08950E94850080E0D1
:1001B0000E9483030E9427030E94A9010E948B00D2
:1001C0000E9496002FE738E381E0215030408040C4
:1001D000E1F700C000009EB180E198279EB99FEF33
:1001E00020E732E0915020403040E1F700C00000AD
:1001F0009EB198279EB99FEF20E732E091502040B2
:100200003040E1F700C000009EB198279EB99FEFF3
:1002100020E732E0915020403040E1F700C000007C
:100220009EB198279EB99FEF20E732E09150204081
:100230003040E1F700C000009EB198279EB99FEFC3
:1002400020E732E0915020403040E1F700C000004C
:100250009EB198279EB99FEF20E732E09150204051
:100260003040E1F700C000009EB198279EB99FEF93
:1002700020E732E0915020403040E1F700C000001C
:100280009EB189278EB98FEF99E628E18150904081
:100290002040E1F700C0000078940E94D90185E079
:1002A00091E00E94490280E091E00E9441028AE0D0
:1002B00091E00E94AD028FE19EE40197F1F700C04A
:1002C000000010E18EB181278EB90E94B70188230A
:1002D000E1F380E491E00E9416028091400118163B
:1002E00044F4082E000C990B0E949F000E94BF004E
:1002F00009C088233CF4082E000C990B0E949F0033
:100300000E94C20083E291E00E948A02C0E4D1E030
:100310008881082E000C990B0E94D30281E391E0A2
:100320000E948A028981082E000C990B0E94D30238
:1003300080E20E9487028AE00E9487026981062E7D
:10034000000C770B880B990B0E9431040E94C500AA
:10035000B9CF549A569A5C985E9AE898E9E6F0E02C
:10036000808182608083E89A0E94270308958091AB
:100370004201811107C05E988FEF0E9436035E9A9A
:100380008074089580E00895CF93C62F5E988F7192
:1003900080620E942E0382E48A95F1F700C08C2FC0
:1003A0000E942E035E9A82E48A95F1F700C0CF91F5
:1003B00008956CE685E00E94C40160E081E10E943E
:1003C000C40162E082E10E94C40160E083E10E9416
:1003D000C40160E084E10E94C40160E085E10E9404
:1003E000C40160E086E10E94C40166E286E00E94EA
:1003F000C40163E081E00E94C40163E082E00E94E6
:10040000C4016FE484E00E94C4011092420160E7DD
:1004100087E00E94C4015E9881EE0E942E035E9ADE
:100420006BE580E00E94C4015C9A0895CF93DF934E
:10043000EC015E9881E60E942E0342E0BE01CE01EF
:100440000E9457035E9A60E487E00E94C401DF9136
:10045000CF9108951F93CF93DF93EB01142F5E98F4
:100460008F7180620E942E03612FCE010E94400393
:100470005E9A82E48A95F1F700C0DF91CF911F91D7
:1004800008955C9845E0BC018BE00E942A025C9ACA
:100490000895CF93DF93EC0145E0BC018AE00E9410
:1004A0002A0245E0BE0180E10E942A02DF91CF913D
:1004B00008951F920F920FB60F9211242F933F931E
:1004C0004F935F936F937F938F939F93AF93BF935C
:1004D000EF93FF9380914201882341F05C986BE594
:1004E00080E00E94C4015C9A10924201FF91EF915A
:1004F000BF91AF919F918F917F916F915F914F913C
:100500003F912F910F900FBE0F901F9018950E9452
:100510007B0308950F931F93CF93DF93FC0180819A
:100520008A30B1F08B3361F413C089918A3081F045
:100530008B3371F00E947B030C171D07B1F708C0C5
:100540008F010E947B03E801219608531F4FEDCFD6
:10055000DF91CF911F910F9108950F931F93CF9328
:10056000DF938C01FC0180818A3069F08B3379F450
:100570000AC089918A3039F08B3329F00E947B03BD
:100580000C171D07B1F78AE00E947B0307C00E9489
:100590007B03E801219608531F4FEBCFDF91CF91EA
:1005A0001F910F910895EF92FF920F931F93CF9396
:1005B000DF93CDB7DEB7E2970FB6F894DEBF0FBE7C
:1005C000CDBF8C01009731F480E30E947B03E12CC6
:1005D000F12C16C020E030E0EAE0F0E001C0970125
:1005E000BF010E942A05CB0179014FEFE41AF40AFA
:1005F0000097A9F7112324F4790182E0E80EF11C99
:100600004AE0BE016F5F7F4FC8010E9452051E1471
:100610001F046CF48E010F5F1F4FE00EF11EF801F6
:1006200081918F010E947B030E151F05C1F78AE09F
:100630000E947B03E2960FB6F894DEBF0FBECDBFDB
:10064000DF91CF911F910F91FF90EF9008956B9ADA
:10065000579A569A82E58093AC0008958093AE0035
:10066000EDEAF0E080818823ECF708958093AE00F6
:10067000EDEAF0E080818823ECF78091AE000895E8
:10068000CF93DF93662381F0DC019C01260F311D9F
:10069000CEEAD0E0EDEAF0E09D9198839081992335
:1006A000ECF7A217B307C1F7DF91CF9108950F932D
:1006B0001F93CF93DF934423C9F0DC01062F172F3C
:1006C0009C01240F311DA9012EEA30E0EDEAF0E093
:1006D0009D91E901988390819923ECF7E901988134
:1006E000E80199938E01A417B50791F7DF91CF9197
:1006F0001F910F910895E0ECF0E0908195FFFDCF00
:100700008093C600089598E99093C10096E0909375
:10071000C2008093C40008955058BB27AA270E94A6
:10072000A4030C9483040E94750438F00E947C0496
:1007300020F039F49F3F19F426F40C9472040EF45F
:10074000E095E7FB0C946C04E92F0E94940458F3A5
:10075000BA17620773078407950720F079F4A6F5A6
:100760000C94B6040EF4E0950B2EBA2FA02D0B01BD
:10077000B90190010C01CA01A0011124FF27591BE6
:1007800099F0593F50F4503E68F11A16F040A22FEC
:10079000232F342F4427585FF3CF4695379527955D
:1007A000A795F0405395C9F77EF41F16BA0B620B5C
:1007B000730B840BBAF09150A1F0FF0FBB1F661FA3
:1007C000771F881FC2F70EC0BA0F621F731F841FE6
:1007D00048F4879577956795B795F7959E3F08F00C
:1007E000B0CF9395880F08F09927EE0F97958795CE
:1007F00008950E9400046894B1110C94B704089500
:100800000E949C0488F09F5798F0B92F9927B75100
:10081000B0F0E1F0660F771F881F991F1AF0BA95A4
:10082000C9F714C0B13091F00E94B604B1E0089548
:100830000C94B604672F782F8827B85F39F0B93F3A
:10084000CCF3869577956795B395D9F73EF4909557
:100850008095709561957F4F8F4F9F4F0895E894D5
:1008600009C097FB3EF490958095709561957F4FF8
:100870008F4F9F4F9923A9F0F92F96E9BB279395A6
:10088000F695879577956795B795F111F8CFFAF4B6
:10089000BB0F11F460FF1BC06F5F7F4F8F4F9F4FE7
:1008A00016C0882311F096E911C0772321F09EE845
:1008B000872F762F05C0662371F096E8862F70E0AB
:1008C00060E02AF09A95660F771F881FDAF7880F85
:1008D0009695879597F9089597F99F6780E870E056
:1008E00060E008959FEF80EC089500240A941616A6
:1008F000170618060906089500240A94121613060E
:10090000140605060895092E0394000C11F488239B
:1009100052F0BB0F40F4BF2B11F460FF04C06F5FB7
:100920007F4F8F4F9F4F089557FD9058440F551F8D
:1009300059F05F3F71F04795880F97FB991F61F061
:100940009F3F79F087950895121613061406551FD8
:10095000F2CF4695F1DF08C0161617061806991F44
:10096000F1CF86957105610508940895E894BB2739
:1009700066277727CB0197F908950E94D0040C943D
:1009800083040E94750438F00E947C0420F09523B3
:1009900011F00C946C040C94720411240C94B704A0
:1009A0000E94940470F3959FC1F3950F50E0551F7A
:1009B000629FF001729FBB27F00DB11D639FAA27B4
:1009C000F00DB11DAA1F649F6627B00DA11D661F03
:1009D000829F2227B00DA11D621F739FB00DA11D24
:1009E000621F839FA00D611D221F749F3327A00DDE
:1009F000611D231F849F600D211D822F762F6A2F7A
:100A000011249F5750409AF0F1F088234AF0EE0FDE
:100A1000FF1FBB1F661F771F881F91505040A9F70B
:100A20009E3F510580F00C946C040C94B7045F3F1A
:100A3000E4F3983ED4F3869577956795B795F79547
:100A4000E7959F5FC1F7FE2B880F911D96958795BF
:100A500097F9089597FB072E16F4009407D077FDB9
:100A600009D00E943E0507FC05D03EF49095819583
:100A70009F4F0895709561957F4F0895AA1BBB1BEA
:100A800051E107C0AA1FBB1FA617B70710F0A61B8E
:100A9000B70B881F991F5A95A9F780959095BC01AF
:100AA000CD010895BB274A3031F4992322F4BDE2E9
:100AB000909581959F4F0C945E05BB27FB015527B0
:100AC000AA27880F991FAA1FA41710F0A41B8395AB
:100AD0005051B9F7A05DAA3308F0A95DA193009722
:100AE00079F7B111B1931192CB010C947705DC0128
:100AF000FC01672F71917723E1F7329704C07C9155
:100B00006D9370836291AE17BF07C8F30895F89490
:020B1000FFCF15
:100B1200E7E7E7E7E7D7D7D7D7D76E524632344C65
:100B2200303120696E697469616C697A65642E2E50
:100B32002E3B006275666665725B305D203D203B30
:100B4200006275666665725B315D203D203B000088
:00000001FF
